{
  "contractName": "myCryptoCats",
  "abi": [
    {
      "inputs": [],
      "stateMutability": "nonpayable",
      "type": "constructor"
    },
    {
      "anonymous": false,
      "inputs": [
        {
          "indexed": true,
          "internalType": "address",
          "name": "owner",
          "type": "address"
        },
        {
          "indexed": true,
          "internalType": "address",
          "name": "approved",
          "type": "address"
        },
        {
          "indexed": true,
          "internalType": "uint256",
          "name": "tokenId",
          "type": "uint256"
        }
      ],
      "name": "Approval",
      "type": "event"
    },
    {
      "anonymous": false,
      "inputs": [
        {
          "indexed": true,
          "internalType": "address",
          "name": "owner",
          "type": "address"
        },
        {
          "indexed": true,
          "internalType": "address",
          "name": "operator",
          "type": "address"
        },
        {
          "indexed": false,
          "internalType": "bool",
          "name": "approved",
          "type": "bool"
        }
      ],
      "name": "ApprovalForAll",
      "type": "event"
    },
    {
      "anonymous": false,
      "inputs": [
        {
          "indexed": false,
          "internalType": "address",
          "name": "owner",
          "type": "address"
        },
        {
          "indexed": false,
          "internalType": "uint256",
          "name": "kittenId",
          "type": "uint256"
        },
        {
          "indexed": false,
          "internalType": "uint256",
          "name": "mumId",
          "type": "uint256"
        },
        {
          "indexed": false,
          "internalType": "uint256",
          "name": "dadId",
          "type": "uint256"
        },
        {
          "indexed": false,
          "internalType": "uint256",
          "name": "genes",
          "type": "uint256"
        }
      ],
      "name": "Birth",
      "type": "event"
    },
    {
      "anonymous": false,
      "inputs": [
        {
          "indexed": true,
          "internalType": "address",
          "name": "previousOwner",
          "type": "address"
        },
        {
          "indexed": true,
          "internalType": "address",
          "name": "newOwner",
          "type": "address"
        }
      ],
      "name": "OwnershipTransferred",
      "type": "event"
    },
    {
      "anonymous": false,
      "inputs": [
        {
          "indexed": true,
          "internalType": "address",
          "name": "from",
          "type": "address"
        },
        {
          "indexed": true,
          "internalType": "address",
          "name": "to",
          "type": "address"
        },
        {
          "indexed": true,
          "internalType": "uint256",
          "name": "tokenId",
          "type": "uint256"
        }
      ],
      "name": "Transfer",
      "type": "event"
    },
    {
      "inputs": [],
      "name": "CERATION_LIMIT_GEN0",
      "outputs": [
        {
          "internalType": "uint256",
          "name": "",
          "type": "uint256"
        }
      ],
      "stateMutability": "view",
      "type": "function"
    },
    {
      "inputs": [
        {
          "internalType": "address",
          "name": "to",
          "type": "address"
        },
        {
          "internalType": "uint256",
          "name": "tokenId",
          "type": "uint256"
        }
      ],
      "name": "approve",
      "outputs": [],
      "stateMutability": "nonpayable",
      "type": "function"
    },
    {
      "inputs": [
        {
          "internalType": "address",
          "name": "owner",
          "type": "address"
        }
      ],
      "name": "balanceOf",
      "outputs": [
        {
          "internalType": "uint256",
          "name": "",
          "type": "uint256"
        }
      ],
      "stateMutability": "view",
      "type": "function"
    },
    {
      "inputs": [],
      "name": "gen0Counter",
      "outputs": [
        {
          "internalType": "uint256",
          "name": "",
          "type": "uint256"
        }
      ],
      "stateMutability": "view",
      "type": "function"
    },
    {
      "inputs": [
        {
          "internalType": "uint256",
          "name": "tokenId",
          "type": "uint256"
        }
      ],
      "name": "getApproved",
      "outputs": [
        {
          "internalType": "address",
          "name": "",
          "type": "address"
        }
      ],
      "stateMutability": "view",
      "type": "function"
    },
    {
      "inputs": [
        {
          "internalType": "address",
          "name": "owner",
          "type": "address"
        },
        {
          "internalType": "address",
          "name": "operator",
          "type": "address"
        }
      ],
      "name": "isApprovedForAll",
      "outputs": [
        {
          "internalType": "bool",
          "name": "",
          "type": "bool"
        }
      ],
      "stateMutability": "view",
      "type": "function"
    },
    {
      "inputs": [],
      "name": "name",
      "outputs": [
        {
          "internalType": "string",
          "name": "",
          "type": "string"
        }
      ],
      "stateMutability": "view",
      "type": "function"
    },
    {
      "inputs": [],
      "name": "owner",
      "outputs": [
        {
          "internalType": "address",
          "name": "",
          "type": "address"
        }
      ],
      "stateMutability": "view",
      "type": "function"
    },
    {
      "inputs": [
        {
          "internalType": "uint256",
          "name": "tokenId",
          "type": "uint256"
        }
      ],
      "name": "ownerOf",
      "outputs": [
        {
          "internalType": "address",
          "name": "",
          "type": "address"
        }
      ],
      "stateMutability": "view",
      "type": "function"
    },
    {
      "inputs": [],
      "name": "renounceOwnership",
      "outputs": [],
      "stateMutability": "nonpayable",
      "type": "function"
    },
    {
      "inputs": [
        {
          "internalType": "address",
          "name": "from",
          "type": "address"
        },
        {
          "internalType": "address",
          "name": "to",
          "type": "address"
        },
        {
          "internalType": "uint256",
          "name": "tokenId",
          "type": "uint256"
        }
      ],
      "name": "safeTransferFrom",
      "outputs": [],
      "stateMutability": "nonpayable",
      "type": "function"
    },
    {
      "inputs": [
        {
          "internalType": "address",
          "name": "from",
          "type": "address"
        },
        {
          "internalType": "address",
          "name": "to",
          "type": "address"
        },
        {
          "internalType": "uint256",
          "name": "tokenId",
          "type": "uint256"
        },
        {
          "internalType": "bytes",
          "name": "_data",
          "type": "bytes"
        }
      ],
      "name": "safeTransferFrom",
      "outputs": [],
      "stateMutability": "nonpayable",
      "type": "function"
    },
    {
      "inputs": [
        {
          "internalType": "address",
          "name": "operator",
          "type": "address"
        },
        {
          "internalType": "bool",
          "name": "approved",
          "type": "bool"
        }
      ],
      "name": "setApprovalForAll",
      "outputs": [],
      "stateMutability": "nonpayable",
      "type": "function"
    },
    {
      "inputs": [
        {
          "internalType": "bytes4",
          "name": "interfaceId",
          "type": "bytes4"
        }
      ],
      "name": "supportsInterface",
      "outputs": [
        {
          "internalType": "bool",
          "name": "",
          "type": "bool"
        }
      ],
      "stateMutability": "view",
      "type": "function"
    },
    {
      "inputs": [],
      "name": "symbol",
      "outputs": [
        {
          "internalType": "string",
          "name": "",
          "type": "string"
        }
      ],
      "stateMutability": "view",
      "type": "function"
    },
    {
      "inputs": [
        {
          "internalType": "uint256",
          "name": "tokenId",
          "type": "uint256"
        }
      ],
      "name": "tokenURI",
      "outputs": [
        {
          "internalType": "string",
          "name": "",
          "type": "string"
        }
      ],
      "stateMutability": "view",
      "type": "function"
    },
    {
      "inputs": [
        {
          "internalType": "address",
          "name": "from",
          "type": "address"
        },
        {
          "internalType": "address",
          "name": "to",
          "type": "address"
        },
        {
          "internalType": "uint256",
          "name": "tokenId",
          "type": "uint256"
        }
      ],
      "name": "transferFrom",
      "outputs": [],
      "stateMutability": "nonpayable",
      "type": "function"
    },
    {
      "inputs": [
        {
          "internalType": "address",
          "name": "newOwner",
          "type": "address"
        }
      ],
      "name": "transferOwnership",
      "outputs": [],
      "stateMutability": "nonpayable",
      "type": "function"
    },
    {
      "inputs": [],
      "name": "totalSupply",
      "outputs": [
        {
          "internalType": "uint256",
          "name": "total",
          "type": "uint256"
        }
      ],
      "stateMutability": "view",
      "type": "function"
    },
    {
      "inputs": [
        {
          "internalType": "address",
          "name": "owner",
          "type": "address"
        }
      ],
      "name": "getAllCatsFor",
      "outputs": [
        {
          "internalType": "uint256[]",
          "name": "cats",
          "type": "uint256[]"
        }
      ],
      "stateMutability": "view",
      "type": "function"
    },
    {
      "inputs": [
        {
          "internalType": "uint256",
          "name": "tokenId",
          "type": "uint256"
        }
      ],
      "name": "getKitty",
      "outputs": [
        {
          "internalType": "uint256",
          "name": "birthTime",
          "type": "uint256"
        },
        {
          "internalType": "uint256",
          "name": "mumId",
          "type": "uint256"
        },
        {
          "internalType": "uint256",
          "name": "dadId",
          "type": "uint256"
        },
        {
          "internalType": "uint256",
          "name": "generation",
          "type": "uint256"
        },
        {
          "internalType": "uint256",
          "name": "genes",
          "type": "uint256"
        }
      ],
      "stateMutability": "view",
      "type": "function"
    },
    {
      "inputs": [
        {
          "internalType": "uint256",
          "name": "_id",
          "type": "uint256"
        }
      ],
      "name": "getKittyFilip",
      "outputs": [
        {
          "internalType": "uint256",
          "name": "birthTime",
          "type": "uint256"
        },
        {
          "internalType": "uint256",
          "name": "mumId",
          "type": "uint256"
        },
        {
          "internalType": "uint256",
          "name": "dadId",
          "type": "uint256"
        },
        {
          "internalType": "uint256",
          "name": "generation",
          "type": "uint256"
        },
        {
          "internalType": "uint256",
          "name": "genes",
          "type": "uint256"
        }
      ],
      "stateMutability": "view",
      "type": "function"
    },
    {
      "inputs": [
        {
          "internalType": "uint256",
          "name": "_genes",
          "type": "uint256"
        }
      ],
      "name": "createKittyGen0",
      "outputs": [
        {
          "internalType": "uint256",
          "name": "",
          "type": "uint256"
        }
      ],
      "stateMutability": "nonpayable",
      "type": "function"
    },
    {
      "inputs": [
        {
          "internalType": "uint256",
          "name": "_mumId",
          "type": "uint256"
        },
        {
          "internalType": "uint256",
          "name": "_dadId",
          "type": "uint256"
        },
        {
          "internalType": "uint256",
          "name": "_generation",
          "type": "uint256"
        },
        {
          "internalType": "uint256",
          "name": "_genes",
          "type": "uint256"
        },
        {
          "internalType": "address",
          "name": "owner",
          "type": "address"
        }
      ],
      "name": "_createKitty",
      "outputs": [
        {
          "internalType": "uint256",
          "name": "",
          "type": "uint256"
        }
      ],
      "stateMutability": "nonpayable",
      "type": "function"
    }
  ],
  "bytecode": "0x60806040523480156200001157600080fd5b506040518060400160405280600c81526020017f6d7943727970746f4361747300000000000000000000000000000000000000008152506040518060400160405280600481526020017f4d43435400000000000000000000000000000000000000000000000000000000815250816000908051906020019062000096929190620001a6565b508060019080519060200190620000af929190620001a6565b505050620000d2620000c6620000d860201b60201c565b620000e060201b60201c565b620002bb565b600033905090565b6000600660009054906101000a900473ffffffffffffffffffffffffffffffffffffffff16905081600660006101000a81548173ffffffffffffffffffffffffffffffffffffffff021916908373ffffffffffffffffffffffffffffffffffffffff1602179055508173ffffffffffffffffffffffffffffffffffffffff168173ffffffffffffffffffffffffffffffffffffffff167f8be0079c531659141344cd1fd0a4f28419497f9722a3daafe3b4186f6b6457e060405160405180910390a35050565b828054620001b49062000256565b90600052602060002090601f016020900481019282620001d8576000855562000224565b82601f10620001f357805160ff191683800117855562000224565b8280016001018555821562000224579182015b828111156200022357825182559160200191906001019062000206565b5b50905062000233919062000237565b5090565b5b808211156200025257600081600090555060010162000238565b5090565b600060028204905060018216806200026f57607f821691505b602082108114156200028657620002856200028c565b5b50919050565b7f4e487b7100000000000000000000000000000000000000000000000000000000600052602260045260246000fd5b61308680620002cb6000396000f3fe608060405234801561001057600080fd5b50600436106101585760003560e01c8063715018a6116100c3578063d5a776ca1161007c578063d5a776ca146103ef578063de7880f51461041f578063e985e9c51461043d578063e98b7f4d1461046d578063ef5e94aa146104a1578063f2fde38b146104bf57610158565b8063715018a6146103415780638da5cb5b1461034b57806395d89b4114610369578063a22cb46514610387578063b88d4fde146103a3578063c87b56dd146103bf57610158565b806323b872dd1161011557806323b872dd14610249578063338a63a41461026557806342842e0e146102955780635a64aafa146102b15780636352211e146102e157806370a082311461031157610158565b806301ffc9a71461015d57806306fdde031461018d578063081812fc146101ab578063095ea7b3146101db5780630dd1c2e8146101f757806318160ddd1461022b575b600080fd5b61017760048036038101906101729190611f80565b6104db565b60405161018491906124e4565b60405180910390f35b6101956105bd565b6040516101a291906124ff565b60405180910390f35b6101c560048036038101906101c09190611fda565b61064f565b6040516101d29190612408565b60405180910390f35b6101f560048036038101906101f09190611f40565b6106d4565b005b610211600480360381019061020c9190611fda565b6107ec565b60405161022295949392919061271c565b60405180910390f35b6102336108a2565b6040516102409190612701565b60405180910390f35b610263600480360381019061025e9190611e2a565b6108af565b005b61027f600480360381019061027a9190612007565b61090f565b60405161028c9190612701565b60405180910390f35b6102af60048036038101906102aa9190611e2a565b610a9c565b005b6102cb60048036038101906102c69190611dbd565b610abc565b6040516102d891906124c2565b60405180910390f35b6102fb60048036038101906102f69190611fda565b610b53565b6040516103089190612408565b60405180910390f35b61032b60048036038101906103269190611dbd565b610c05565b6040516103389190612701565b60405180910390f35b610349610cbd565b005b610353610d45565b6040516103609190612408565b60405180910390f35b610371610d6f565b60405161037e91906124ff565b60405180910390f35b6103a1600480360381019061039c9190611f00565b610e01565b005b6103bd60048036038101906103b89190611e7d565b610f82565b005b6103d960048036038101906103d49190611fda565b610fe4565b6040516103e691906124ff565b60405180910390f35b61040960048036038101906104049190611fda565b61108b565b6040516104169190612701565b60405180910390f35b61042761117d565b6040516104349190612701565b60405180910390f35b61045760048036038101906104529190611dea565b611182565b60405161046491906124e4565b60405180910390f35b61048760048036038101906104829190611fda565b611216565b60405161049895949392919061271c565b60405180910390f35b6104a96112cc565b6040516104b69190612701565b60405180910390f35b6104d960048036038101906104d49190611dbd565b6112d2565b005b60007f80ac58cd000000000000000000000000000000000000000000000000000000007bffffffffffffffffffffffffffffffffffffffffffffffffffffffff1916827bffffffffffffffffffffffffffffffffffffffffffffffffffffffff191614806105a657507f5b5e139f000000000000000000000000000000000000000000000000000000007bffffffffffffffffffffffffffffffffffffffffffffffffffffffff1916827bffffffffffffffffffffffffffffffffffffffffffffffffffffffff1916145b806105b657506105b5826113ca565b5b9050919050565b6060600080546105cc906129b2565b80601f01602080910402602001604051908101604052809291908181526020018280546105f8906129b2565b80156106455780601f1061061a57610100808354040283529160200191610645565b820191906000526020600020905b81548152906001019060200180831161062857829003601f168201915b5050505050905090565b600061065a82611434565b610699576040517f08c379a000000000000000000000000000000000000000000000000000000000815260040161069090612641565b60405180910390fd5b6004600083815260200190815260200160002060009054906101000a900473ffffffffffffffffffffffffffffffffffffffff169050919050565b60006106df82610b53565b90508073ffffffffffffffffffffffffffffffffffffffff168373ffffffffffffffffffffffffffffffffffffffff161415610750576040517f08c379a0000000000000000000000000000000000000000000000000000000008152600401610747906126c1565b60405180910390fd5b8073ffffffffffffffffffffffffffffffffffffffff1661076f6114a0565b73ffffffffffffffffffffffffffffffffffffffff16148061079e575061079d816107986114a0565b611182565b5b6107dd576040517f08c379a00000000000000000000000000000000000000000000000000000000081526004016107d4906125e1565b60405180910390fd5b6107e783836114a8565b505050565b6000806000806000806009878154811061080957610808612b1c565b5b906000526020600020906002020190508060000160009054906101000a900467ffffffffffffffff1667ffffffffffffffff1695508060000160089054906101000a900463ffffffff1663ffffffff16945080600001600c9054906101000a900463ffffffff1663ffffffff1693508060000160109054906101000a900461ffff1661ffff169250806001015491505091939590929450565b6000600980549050905090565b6108c06108ba6114a0565b82611561565b6108ff576040517f08c379a00000000000000000000000000000000000000000000000000000000081526004016108f6906126e1565b60405180910390fd5b61090a83838361163f565b505050565b6000806040518060a001604052804267ffffffffffffffff1681526020018863ffffffff1681526020018763ffffffff1681526020018661ffff168152602001858152509050600981908060018154018082558091505060019003906000526020600020906002020160009091909190915060008201518160000160006101000a81548167ffffffffffffffff021916908367ffffffffffffffff16021790555060208201518160000160086101000a81548163ffffffff021916908363ffffffff160217905550604082015181600001600c6101000a81548163ffffffff021916908363ffffffff16021790555060608201518160000160106101000a81548161ffff021916908361ffff16021790555060808201518160010155505060006001600980549050610a4191906128c8565b90507f0a5311bd2a6608f08a180df2ee7c5946819a649b204b554bb8e39825b2c50ad584828a8a89604051610a7a95949392919061246f565b60405180910390a1610a8e6000858361163f565b809250505095945050505050565b610ab783838360405180602001604052806000815250610f82565b505050565b6060600860008373ffffffffffffffffffffffffffffffffffffffff1673ffffffffffffffffffffffffffffffffffffffff168152602001908152602001600020805480602002602001604051908101604052809291908181526020018280548015610b4757602002820191906000526020600020905b815481526020019060010190808311610b33575b50505050509050919050565b6000806002600084815260200190815260200160002060009054906101000a900473ffffffffffffffffffffffffffffffffffffffff169050600073ffffffffffffffffffffffffffffffffffffffff168173ffffffffffffffffffffffffffffffffffffffff161415610bfc576040517f08c379a0000000000000000000000000000000000000000000000000000000008152600401610bf390612621565b60405180910390fd5b80915050919050565b60008073ffffffffffffffffffffffffffffffffffffffff168273ffffffffffffffffffffffffffffffffffffffff161415610c76576040517f08c379a0000000000000000000000000000000000000000000000000000000008152600401610c6d90612601565b60405180910390fd5b600360008373ffffffffffffffffffffffffffffffffffffffff1673ffffffffffffffffffffffffffffffffffffffff168152602001908152602001600020549050919050565b610cc56114a0565b73ffffffffffffffffffffffffffffffffffffffff16610ce3610d45565b73ffffffffffffffffffffffffffffffffffffffff1614610d39576040517f08c379a0000000000000000000000000000000000000000000000000000000008152600401610d3090612661565b60405180910390fd5b610d43600061189b565b565b6000600660009054906101000a900473ffffffffffffffffffffffffffffffffffffffff16905090565b606060018054610d7e906129b2565b80601f0160208091040260200160405190810160405280929190818152602001828054610daa906129b2565b8015610df75780601f10610dcc57610100808354040283529160200191610df7565b820191906000526020600020905b815481529060010190602001808311610dda57829003601f168201915b5050505050905090565b610e096114a0565b73ffffffffffffffffffffffffffffffffffffffff168273ffffffffffffffffffffffffffffffffffffffff161415610e77576040517f08c379a0000000000000000000000000000000000000000000000000000000008152600401610e6e906125a1565b60405180910390fd5b8060056000610e846114a0565b73ffffffffffffffffffffffffffffffffffffffff1673ffffffffffffffffffffffffffffffffffffffff16815260200190815260200160002060008473ffffffffffffffffffffffffffffffffffffffff1673ffffffffffffffffffffffffffffffffffffffff16815260200190815260200160002060006101000a81548160ff0219169083151502179055508173ffffffffffffffffffffffffffffffffffffffff16610f316114a0565b73ffffffffffffffffffffffffffffffffffffffff167f17307eab39ab6107e8899845ad3d59bd9653f200f220920489ca2b5937696c3183604051610f7691906124e4565b60405180910390a35050565b610f93610f8d6114a0565b83611561565b610fd2576040517f08c379a0000000000000000000000000000000000000000000000000000000008152600401610fc9906126e1565b60405180910390fd5b610fde84848484611961565b50505050565b6060610fef82611434565b61102e576040517f08c379a0000000000000000000000000000000000000000000000000000000008152600401611025906126a1565b60405180910390fd5b60006110386119bd565b905060008151116110585760405180602001604052806000815250611083565b80611062846119d4565b6040516020016110739291906123e4565b6040516020818303038152906040525b915050919050565b60006110956114a0565b73ffffffffffffffffffffffffffffffffffffffff166110b3610d45565b73ffffffffffffffffffffffffffffffffffffffff1614611109576040517f08c379a000000000000000000000000000000000000000000000000000000000815260040161110090612661565b60405180910390fd5b600a600754111561114f576040517f08c379a000000000000000000000000000000000000000000000000000000000815260040161114690612561565b60405180910390fd5b6007600081548092919061116290612a15565b91905055506111766000806000853361090f565b9050919050565b600a81565b6000600560008473ffffffffffffffffffffffffffffffffffffffff1673ffffffffffffffffffffffffffffffffffffffff16815260200190815260200160002060008373ffffffffffffffffffffffffffffffffffffffff1673ffffffffffffffffffffffffffffffffffffffff16815260200190815260200160002060009054906101000a900460ff16905092915050565b6000806000806000806009878154811061123357611232612b1c565b5b906000526020600020906002020190508060000160009054906101000a900467ffffffffffffffff1667ffffffffffffffff168160000160089054906101000a900463ffffffff1663ffffffff1682600001600c9054906101000a900463ffffffff1663ffffffff168360000160109054906101000a900461ffff1661ffff168460010154955095509550955095505091939590929450565b60075481565b6112da6114a0565b73ffffffffffffffffffffffffffffffffffffffff166112f8610d45565b73ffffffffffffffffffffffffffffffffffffffff161461134e576040517f08c379a000000000000000000000000000000000000000000000000000000000815260040161134590612661565b60405180910390fd5b600073ffffffffffffffffffffffffffffffffffffffff168173ffffffffffffffffffffffffffffffffffffffff1614156113be576040517f08c379a00000000000000000000000000000000000000000000000000000000081526004016113b590612541565b60405180910390fd5b6113c78161189b565b50565b60007f01ffc9a7000000000000000000000000000000000000000000000000000000007bffffffffffffffffffffffffffffffffffffffffffffffffffffffff1916827bffffffffffffffffffffffffffffffffffffffffffffffffffffffff1916149050919050565b60008073ffffffffffffffffffffffffffffffffffffffff166002600084815260200190815260200160002060009054906101000a900473ffffffffffffffffffffffffffffffffffffffff1673ffffffffffffffffffffffffffffffffffffffff1614159050919050565b600033905090565b816004600083815260200190815260200160002060006101000a81548173ffffffffffffffffffffffffffffffffffffffff021916908373ffffffffffffffffffffffffffffffffffffffff160217905550808273ffffffffffffffffffffffffffffffffffffffff1661151b83610b53565b73ffffffffffffffffffffffffffffffffffffffff167f8c5be1e5ebec7d5bd14f71427d1e84f3dd0314c0f7b2291e5b200ac8c7c3b92560405160405180910390a45050565b600061156c82611434565b6115ab576040517f08c379a00000000000000000000000000000000000000000000000000000000081526004016115a2906125c1565b60405180910390fd5b60006115b683610b53565b90508073ffffffffffffffffffffffffffffffffffffffff168473ffffffffffffffffffffffffffffffffffffffff16148061162557508373ffffffffffffffffffffffffffffffffffffffff1661160d8461064f565b73ffffffffffffffffffffffffffffffffffffffff16145b8061163657506116358185611182565b5b91505092915050565b8273ffffffffffffffffffffffffffffffffffffffff1661165f82610b53565b73ffffffffffffffffffffffffffffffffffffffff16146116b5576040517f08c379a00000000000000000000000000000000000000000000000000000000081526004016116ac90612681565b60405180910390fd5b600073ffffffffffffffffffffffffffffffffffffffff168273ffffffffffffffffffffffffffffffffffffffff161415611725576040517f08c379a000000000000000000000000000000000000000000000000000000000815260040161171c90612581565b60405180910390fd5b611730838383611b35565b61173b6000826114a8565b6001600360008573ffffffffffffffffffffffffffffffffffffffff1673ffffffffffffffffffffffffffffffffffffffff168152602001908152602001600020600082825461178b91906128c8565b925050819055506001600360008473ffffffffffffffffffffffffffffffffffffffff1673ffffffffffffffffffffffffffffffffffffffff16815260200190815260200160002060008282546117e29190612841565b92505081905550816002600083815260200190815260200160002060006101000a81548173ffffffffffffffffffffffffffffffffffffffff021916908373ffffffffffffffffffffffffffffffffffffffff160217905550808273ffffffffffffffffffffffffffffffffffffffff168473ffffffffffffffffffffffffffffffffffffffff167fddf252ad1be2c89b69c2b068fc378daa952ba7f163c4a11628f55a4df523b3ef60405160405180910390a4505050565b6000600660009054906101000a900473ffffffffffffffffffffffffffffffffffffffff16905081600660006101000a81548173ffffffffffffffffffffffffffffffffffffffff021916908373ffffffffffffffffffffffffffffffffffffffff1602179055508173ffffffffffffffffffffffffffffffffffffffff168173ffffffffffffffffffffffffffffffffffffffff167f8be0079c531659141344cd1fd0a4f28419497f9722a3daafe3b4186f6b6457e060405160405180910390a35050565b61196c84848461163f565b61197884848484611b3a565b6119b7576040517f08c379a00000000000000000000000000000000000000000000000000000000081526004016119ae90612521565b60405180910390fd5b50505050565b606060405180602001604052806000815250905090565b60606000821415611a1c576040518060400160405280600181526020017f30000000000000000000000000000000000000000000000000000000000000008152509050611b30565b600082905060005b60008214611a4e578080611a3790612a15565b915050600a82611a479190612897565b9150611a24565b60008167ffffffffffffffff811115611a6a57611a69612b4b565b5b6040519080825280601f01601f191660200182016040528015611a9c5781602001600182028036833780820191505090505b5090505b60008514611b2957600182611ab591906128c8565b9150600a85611ac49190612a5e565b6030611ad09190612841565b60f81b818381518110611ae657611ae5612b1c565b5b60200101907effffffffffffffffffffffffffffffffffffffffffffffffffffffffffffff1916908160001a905350600a85611b229190612897565b9450611aa0565b8093505050505b919050565b505050565b6000611b5b8473ffffffffffffffffffffffffffffffffffffffff16611cd1565b15611cc4578373ffffffffffffffffffffffffffffffffffffffff1663150b7a02611b846114a0565b8786866040518563ffffffff1660e01b8152600401611ba69493929190612423565b602060405180830381600087803b158015611bc057600080fd5b505af1925050508015611bf157506040513d601f19601f82011682018060405250810190611bee9190611fad565b60015b611c74573d8060008114611c21576040519150601f19603f3d011682016040523d82523d6000602084013e611c26565b606091505b50600081511415611c6c576040517f08c379a0000000000000000000000000000000000000000000000000000000008152600401611c6390612521565b60405180910390fd5b805181602001fd5b63150b7a0260e01b7bffffffffffffffffffffffffffffffffffffffffffffffffffffffff1916817bffffffffffffffffffffffffffffffffffffffffffffffffffffffff191614915050611cc9565b600190505b949350505050565b600080823b905060008111915050919050565b6000611cf7611cf284612794565b61276f565b905082815260208101848484011115611d1357611d12612b7f565b5b611d1e848285612970565b509392505050565b600081359050611d3581612ff4565b92915050565b600081359050611d4a8161300b565b92915050565b600081359050611d5f81613022565b92915050565b600081519050611d7481613022565b92915050565b600082601f830112611d8f57611d8e612b7a565b5b8135611d9f848260208601611ce4565b91505092915050565b600081359050611db781613039565b92915050565b600060208284031215611dd357611dd2612b89565b5b6000611de184828501611d26565b91505092915050565b60008060408385031215611e0157611e00612b89565b5b6000611e0f85828601611d26565b9250506020611e2085828601611d26565b9150509250929050565b600080600060608486031215611e4357611e42612b89565b5b6000611e5186828701611d26565b9350506020611e6286828701611d26565b9250506040611e7386828701611da8565b9150509250925092565b60008060008060808587031215611e9757611e96612b89565b5b6000611ea587828801611d26565b9450506020611eb687828801611d26565b9350506040611ec787828801611da8565b925050606085013567ffffffffffffffff811115611ee857611ee7612b84565b5b611ef487828801611d7a565b91505092959194509250565b60008060408385031215611f1757611f16612b89565b5b6000611f2585828601611d26565b9250506020611f3685828601611d3b565b9150509250929050565b60008060408385031215611f5757611f56612b89565b5b6000611f6585828601611d26565b9250506020611f7685828601611da8565b9150509250929050565b600060208284031215611f9657611f95612b89565b5b6000611fa484828501611d50565b91505092915050565b600060208284031215611fc357611fc2612b89565b5b6000611fd184828501611d65565b91505092915050565b600060208284031215611ff057611fef612b89565b5b6000611ffe84828501611da8565b91505092915050565b600080600080600060a0868803121561202357612022612b89565b5b600061203188828901611da8565b955050602061204288828901611da8565b945050604061205388828901611da8565b935050606061206488828901611da8565b925050608061207588828901611d26565b9150509295509295909350565b600061208e83836123c6565b60208301905092915050565b6120a3816128fc565b82525050565b60006120b4826127d5565b6120be8185612803565b93506120c9836127c5565b8060005b838110156120fa5781516120e18882612082565b97506120ec836127f6565b9250506001810190506120cd565b5085935050505092915050565b6121108161290e565b82525050565b6000612121826127e0565b61212b8185612814565b935061213b81856020860161297f565b61214481612b8e565b840191505092915050565b600061215a826127eb565b6121648185612825565b935061217481856020860161297f565b61217d81612b8e565b840191505092915050565b6000612193826127eb565b61219d8185612836565b93506121ad81856020860161297f565b80840191505092915050565b60006121c6603283612825565b91506121d182612b9f565b604082019050919050565b60006121e9602683612825565b91506121f482612bee565b604082019050919050565b600061220c602e83612825565b915061221782612c3d565b604082019050919050565b600061222f602483612825565b915061223a82612c8c565b604082019050919050565b6000612252601983612825565b915061225d82612cdb565b602082019050919050565b6000612275602c83612825565b915061228082612d04565b604082019050919050565b6000612298603883612825565b91506122a382612d53565b604082019050919050565b60006122bb602a83612825565b91506122c682612da2565b604082019050919050565b60006122de602983612825565b91506122e982612df1565b604082019050919050565b6000612301602c83612825565b915061230c82612e40565b604082019050919050565b6000612324602083612825565b915061232f82612e8f565b602082019050919050565b6000612347602983612825565b915061235282612eb8565b604082019050919050565b600061236a602f83612825565b915061237582612f07565b604082019050919050565b600061238d602183612825565b915061239882612f56565b604082019050919050565b60006123b0603183612825565b91506123bb82612fa5565b604082019050919050565b6123cf81612966565b82525050565b6123de81612966565b82525050565b60006123f08285612188565b91506123fc8284612188565b91508190509392505050565b600060208201905061241d600083018461209a565b92915050565b6000608082019050612438600083018761209a565b612445602083018661209a565b61245260408301856123d5565b81810360608301526124648184612116565b905095945050505050565b600060a082019050612484600083018861209a565b61249160208301876123d5565b61249e60408301866123d5565b6124ab60608301856123d5565b6124b860808301846123d5565b9695505050505050565b600060208201905081810360008301526124dc81846120a9565b905092915050565b60006020820190506124f96000830184612107565b92915050565b60006020820190508181036000830152612519818461214f565b905092915050565b6000602082019050818103600083015261253a816121b9565b9050919050565b6000602082019050818103600083015261255a816121dc565b9050919050565b6000602082019050818103600083015261257a816121ff565b9050919050565b6000602082019050818103600083015261259a81612222565b9050919050565b600060208201905081810360008301526125ba81612245565b9050919050565b600060208201905081810360008301526125da81612268565b9050919050565b600060208201905081810360008301526125fa8161228b565b9050919050565b6000602082019050818103600083015261261a816122ae565b9050919050565b6000602082019050818103600083015261263a816122d1565b9050919050565b6000602082019050818103600083015261265a816122f4565b9050919050565b6000602082019050818103600083015261267a81612317565b9050919050565b6000602082019050818103600083015261269a8161233a565b9050919050565b600060208201905081810360008301526126ba8161235d565b9050919050565b600060208201905081810360008301526126da81612380565b9050919050565b600060208201905081810360008301526126fa816123a3565b9050919050565b600060208201905061271660008301846123d5565b92915050565b600060a08201905061273160008301886123d5565b61273e60208301876123d5565b61274b60408301866123d5565b61275860608301856123d5565b61276560808301846123d5565b9695505050505050565b600061277961278a565b905061278582826129e4565b919050565b6000604051905090565b600067ffffffffffffffff8211156127af576127ae612b4b565b5b6127b882612b8e565b9050602081019050919050565b6000819050602082019050919050565b600081519050919050565b600081519050919050565b600081519050919050565b6000602082019050919050565b600082825260208201905092915050565b600082825260208201905092915050565b600082825260208201905092915050565b600081905092915050565b600061284c82612966565b915061285783612966565b9250827fffffffffffffffffffffffffffffffffffffffffffffffffffffffffffffffff0382111561288c5761288b612a8f565b5b828201905092915050565b60006128a282612966565b91506128ad83612966565b9250826128bd576128bc612abe565b5b828204905092915050565b60006128d382612966565b91506128de83612966565b9250828210156128f1576128f0612a8f565b5b828203905092915050565b600061290782612946565b9050919050565b60008115159050919050565b60007fffffffff0000000000000000000000000000000000000000000000000000000082169050919050565b600073ffffffffffffffffffffffffffffffffffffffff82169050919050565b6000819050919050565b82818337600083830152505050565b60005b8381101561299d578082015181840152602081019050612982565b838111156129ac576000848401525b50505050565b600060028204905060018216806129ca57607f821691505b602082108114156129de576129dd612aed565b5b50919050565b6129ed82612b8e565b810181811067ffffffffffffffff82111715612a0c57612a0b612b4b565b5b80604052505050565b6000612a2082612966565b91507fffffffffffffffffffffffffffffffffffffffffffffffffffffffffffffffff821415612a5357612a52612a8f565b5b600182019050919050565b6000612a6982612966565b9150612a7483612966565b925082612a8457612a83612abe565b5b828206905092915050565b7f4e487b7100000000000000000000000000000000000000000000000000000000600052601160045260246000fd5b7f4e487b7100000000000000000000000000000000000000000000000000000000600052601260045260246000fd5b7f4e487b7100000000000000000000000000000000000000000000000000000000600052602260045260246000fd5b7f4e487b7100000000000000000000000000000000000000000000000000000000600052603260045260246000fd5b7f4e487b7100000000000000000000000000000000000000000000000000000000600052604160045260246000fd5b600080fd5b600080fd5b600080fd5b600080fd5b6000601f19601f8301169050919050565b7f4552433732313a207472616e7366657220746f206e6f6e20455243373231526560008201527f63656976657220696d706c656d656e7465720000000000000000000000000000602082015250565b7f4f776e61626c653a206e6577206f776e657220697320746865207a65726f206160008201527f6464726573730000000000000000000000000000000000000000000000000000602082015250565b7f47656e20302073686f756c64206265206c657373207468616e2063726561746960008201527f6f6e206c696d69742067656e2030000000000000000000000000000000000000602082015250565b7f4552433732313a207472616e7366657220746f20746865207a65726f2061646460008201527f7265737300000000000000000000000000000000000000000000000000000000602082015250565b7f4552433732313a20617070726f766520746f2063616c6c657200000000000000600082015250565b7f4552433732313a206f70657261746f7220717565727920666f72206e6f6e657860008201527f697374656e7420746f6b656e0000000000000000000000000000000000000000602082015250565b7f4552433732313a20617070726f76652063616c6c6572206973206e6f74206f7760008201527f6e6572206e6f7220617070726f76656420666f7220616c6c0000000000000000602082015250565b7f4552433732313a2062616c616e636520717565727920666f7220746865207a6560008201527f726f206164647265737300000000000000000000000000000000000000000000602082015250565b7f4552433732313a206f776e657220717565727920666f72206e6f6e657869737460008201527f656e7420746f6b656e0000000000000000000000000000000000000000000000602082015250565b7f4552433732313a20617070726f76656420717565727920666f72206e6f6e657860008201527f697374656e7420746f6b656e0000000000000000000000000000000000000000602082015250565b7f4f776e61626c653a2063616c6c6572206973206e6f7420746865206f776e6572600082015250565b7f4552433732313a207472616e73666572206f6620746f6b656e2074686174206960008201527f73206e6f74206f776e0000000000000000000000000000000000000000000000602082015250565b7f4552433732314d657461646174613a2055524920717565727920666f72206e6f60008201527f6e6578697374656e7420746f6b656e0000000000000000000000000000000000602082015250565b7f4552433732313a20617070726f76616c20746f2063757272656e74206f776e6560008201527f7200000000000000000000000000000000000000000000000000000000000000602082015250565b7f4552433732313a207472616e736665722063616c6c6572206973206e6f74206f60008201527f776e6572206e6f7220617070726f766564000000000000000000000000000000602082015250565b612ffd816128fc565b811461300857600080fd5b50565b6130148161290e565b811461301f57600080fd5b50565b61302b8161291a565b811461303657600080fd5b50565b61304281612966565b811461304d57600080fd5b5056fea26469706673582212200bf0d8da1fdb2b7ca7718688a0a7bb0e9a0c6187ef88507386574199177cd38e64736f6c63430008060033",
  "immutableReferences": {},
  "source": "// SPDX-License-Identifier: MIT\r\npragma solidity ^0.8.0;\r\n\r\nimport \"@openzeppelin/contracts/token/ERC721/ERC721.sol\";\r\nimport \"@openzeppelin/contracts/access/Ownable.sol\";\r\n\r\ncontract myCryptoCats is ERC721, Ownable {\r\n\r\n  constructor () ERC721( \"myCryptoCats\", \"MCCT\" ) {\r\n  }\r\n\r\n  bytes4 internal constant MAGIC_ERC721_RECEIVED = (bytes4(keccak256(\"onERC721Received(address,address,uint256,bytes)\")));\r\n\r\n   // call onERC721Received in the _to contract\r\n  bytes4 private constant _INTERFACE_ID_ERC721 = 0x80ac58cd;\r\n\r\n  // bytes4(keccat256(\"supportInterface(bytes4)\");\r\n  bytes4 private constant _INTERFACE_ID_ERC165 = 0x01ffc9a7;\r\n\r\n  event Birth(address owner, uint256 kittenId, uint256 mumId, uint256 dadId, uint256 genes);\r\n\r\n  uint256 public constant CERATION_LIMIT_GEN0 = 10; // max num of cats to be generated\r\n\r\n  uint256 public gen0Counter;\r\n\r\n  //an address to a number of cats in an array\r\n  mapping(address => uint256[]) ownerToCats;\r\n\r\n  struct Kitty{\r\n  uint64 birthTime;\r\n  uint32 mumId;\r\n  uint32 dadId;\r\n  uint16 generation;\r\n  uint256 genes;\r\n}\r\n\r\nKitty[] kitties;\r\n\r\n  function totalSupply() public view returns (uint256 total) {\r\n    return kitties.length;\r\n  }\r\n\r\n  function getAllCatsFor(address owner) public view returns (uint[] memory cats) {\r\n    return  ownerToCats[owner];\r\n  }\r\n\r\n  function getKitty(uint256 tokenId) public view returns (uint256 birthTime, uint256 mumId, uint256 dadId, uint256 generation, uint256 genes ) {\r\n    Kitty storage returnKitty = kitties[tokenId];\r\n    return (uint256(returnKitty.birthTime), uint256(returnKitty.mumId), uint256(returnKitty.dadId), uint256(returnKitty.generation), uint256(returnKitty.genes) );\r\n  }\r\n\r\n  function getKittyFilip(uint256 _id) public view returns (\r\n    uint256 birthTime,\r\n    uint256 mumId,\r\n    uint256 dadId,\r\n    uint256 generation,\r\n    uint256 genes \r\n    ) {\r\n\r\n    Kitty storage kitty = kitties[_id];\r\n\r\n    birthTime = uint256(kitty.birthTime);\r\n    mumId = uint256(kitty.mumId);\r\n    dadId = uint256(kitty.dadId);\r\n    generation = uint256(kitty.generation);\r\n    genes = uint256(kitty.genes);\r\n    }\r\n\r\n    function createKittyGen0(uint256 _genes) public onlyOwner returns(uint256) { // needs onlyOwner\r\n      require(gen0Counter <= CERATION_LIMIT_GEN0, \"Gen 0 should be less than creation limit gen 0\" );\r\n\r\n      gen0Counter++;\r\n\r\n      // mum, dad and generation is 0\r\n    // Gen0 have no owners; they are owned by the contract\r\n    return _createKitty(0,0,0, _genes, msg.sender); // msg.sender could also be -- address(this) - we are giving cats to owner\r\n    }\r\n\r\n  // create cats by generation and by breeding\r\n  // returns cat id\r\n  function _createKitty(\r\n    uint256 _mumId,\r\n    uint256 _dadId,\r\n    uint256 _generation, //1,2,3..etc\r\n    uint256 _genes, // recipient\r\n    address owner\r\n  ) public returns(uint256) {\r\n    Kitty memory newKitties = Kitty({\r\n      genes: _genes,\r\n      birthTime: uint64(block.timestamp),\r\n      mumId: uint32(_mumId),\r\n      dadId: uint32(_dadId),\r\n      generation: uint16(_generation)\r\n    });\r\n\r\n    kitties.push(newKitties); // returns the size of array - 1 for the first cat\r\n\r\n    uint256 newKittenId = kitties.length -1; // 0-1\r\n\r\n    emit Birth(owner, newKittenId, _mumId, _dadId, _genes); // birth of a cat from 0 (standard)\r\n\r\n    _transfer(address(0), owner, newKittenId);\r\n\r\n    return newKittenId; //returns 256 bit integer\r\n\r\n  }\r\n  \r\n\r\n}",
  "sourcePath": "C:/Users/benX/Documents/ethereum_course_advanced/digitalCats/contracts/cryptoCats.sol",
  "compiler": {
    "name": "solc",
    "version": "0.8.6+commit.11564f7e.Emscripten.clang"
  },
  "schemaVersion": "3.4.1",
  "updatedAt": "2021-07-11T03:06:50.209Z",
  "devdoc": {
    "kind": "dev",
    "methods": {
      "approve(address,uint256)": {
        "details": "See {IERC721-approve}."
      },
      "balanceOf(address)": {
        "details": "See {IERC721-balanceOf}."
      },
      "getApproved(uint256)": {
        "details": "See {IERC721-getApproved}."
      },
      "isApprovedForAll(address,address)": {
        "details": "See {IERC721-isApprovedForAll}."
      },
      "name()": {
        "details": "See {IERC721Metadata-name}."
      },
      "owner()": {
        "details": "Returns the address of the current owner."
      },
      "ownerOf(uint256)": {
        "details": "See {IERC721-ownerOf}."
      },
      "renounceOwnership()": {
        "details": "Leaves the contract without owner. It will not be possible to call `onlyOwner` functions anymore. Can only be called by the current owner. NOTE: Renouncing ownership will leave the contract without an owner, thereby removing any functionality that is only available to the owner."
      },
      "safeTransferFrom(address,address,uint256)": {
        "details": "See {IERC721-safeTransferFrom}."
      },
      "safeTransferFrom(address,address,uint256,bytes)": {
        "details": "See {IERC721-safeTransferFrom}."
      },
      "setApprovalForAll(address,bool)": {
        "details": "See {IERC721-setApprovalForAll}."
      },
      "supportsInterface(bytes4)": {
        "details": "See {IERC165-supportsInterface}."
      },
      "symbol()": {
        "details": "See {IERC721Metadata-symbol}."
      },
      "tokenURI(uint256)": {
        "details": "See {IERC721Metadata-tokenURI}."
      },
      "transferFrom(address,address,uint256)": {
        "details": "See {IERC721-transferFrom}."
      },
      "transferOwnership(address)": {
        "details": "Transfers ownership of the contract to a new account (`newOwner`). Can only be called by the current owner."
      }
    },
    "version": 1
  },
  "userdoc": {
    "kind": "user",
    "methods": {},
    "version": 1
  }
}