{
  "contractName": "myCryptoCats",
  "abi": [
    {
      "inputs": [],
      "stateMutability": "nonpayable",
      "type": "constructor"
    },
    {
      "anonymous": false,
      "inputs": [
        {
          "indexed": true,
          "internalType": "address",
          "name": "owner",
          "type": "address"
        },
        {
          "indexed": true,
          "internalType": "address",
          "name": "approved",
          "type": "address"
        },
        {
          "indexed": true,
          "internalType": "uint256",
          "name": "tokenId",
          "type": "uint256"
        }
      ],
      "name": "Approval",
      "type": "event"
    },
    {
      "anonymous": false,
      "inputs": [
        {
          "indexed": true,
          "internalType": "address",
          "name": "owner",
          "type": "address"
        },
        {
          "indexed": true,
          "internalType": "address",
          "name": "operator",
          "type": "address"
        },
        {
          "indexed": false,
          "internalType": "bool",
          "name": "approved",
          "type": "bool"
        }
      ],
      "name": "ApprovalForAll",
      "type": "event"
    },
    {
      "anonymous": false,
      "inputs": [
        {
          "indexed": false,
          "internalType": "address",
          "name": "owner",
          "type": "address"
        },
        {
          "indexed": false,
          "internalType": "uint256",
          "name": "kittenId",
          "type": "uint256"
        },
        {
          "indexed": false,
          "internalType": "uint256",
          "name": "mumId",
          "type": "uint256"
        },
        {
          "indexed": false,
          "internalType": "uint256",
          "name": "dadId",
          "type": "uint256"
        },
        {
          "indexed": false,
          "internalType": "uint256",
          "name": "genes",
          "type": "uint256"
        }
      ],
      "name": "Birth",
      "type": "event"
    },
    {
      "anonymous": false,
      "inputs": [
        {
          "indexed": true,
          "internalType": "address",
          "name": "previousOwner",
          "type": "address"
        },
        {
          "indexed": true,
          "internalType": "address",
          "name": "newOwner",
          "type": "address"
        }
      ],
      "name": "OwnershipTransferred",
      "type": "event"
    },
    {
      "anonymous": false,
      "inputs": [
        {
          "indexed": true,
          "internalType": "address",
          "name": "from",
          "type": "address"
        },
        {
          "indexed": true,
          "internalType": "address",
          "name": "to",
          "type": "address"
        },
        {
          "indexed": true,
          "internalType": "uint256",
          "name": "tokenId",
          "type": "uint256"
        }
      ],
      "name": "Transfer",
      "type": "event"
    },
    {
      "inputs": [],
      "name": "CERATION_LIMIT_GEN0",
      "outputs": [
        {
          "internalType": "uint256",
          "name": "",
          "type": "uint256"
        }
      ],
      "stateMutability": "view",
      "type": "function",
      "constant": true
    },
    {
      "inputs": [
        {
          "internalType": "address",
          "name": "to",
          "type": "address"
        },
        {
          "internalType": "uint256",
          "name": "tokenId",
          "type": "uint256"
        }
      ],
      "name": "approve",
      "outputs": [],
      "stateMutability": "nonpayable",
      "type": "function"
    },
    {
      "inputs": [
        {
          "internalType": "address",
          "name": "owner",
          "type": "address"
        }
      ],
      "name": "balanceOf",
      "outputs": [
        {
          "internalType": "uint256",
          "name": "",
          "type": "uint256"
        }
      ],
      "stateMutability": "view",
      "type": "function",
      "constant": true
    },
    {
      "inputs": [],
      "name": "gen0Counter",
      "outputs": [
        {
          "internalType": "uint256",
          "name": "",
          "type": "uint256"
        }
      ],
      "stateMutability": "view",
      "type": "function",
      "constant": true
    },
    {
      "inputs": [
        {
          "internalType": "uint256",
          "name": "tokenId",
          "type": "uint256"
        }
      ],
      "name": "getApproved",
      "outputs": [
        {
          "internalType": "address",
          "name": "",
          "type": "address"
        }
      ],
      "stateMutability": "view",
      "type": "function",
      "constant": true
    },
    {
      "inputs": [
        {
          "internalType": "address",
          "name": "owner",
          "type": "address"
        },
        {
          "internalType": "address",
          "name": "operator",
          "type": "address"
        }
      ],
      "name": "isApprovedForAll",
      "outputs": [
        {
          "internalType": "bool",
          "name": "",
          "type": "bool"
        }
      ],
      "stateMutability": "view",
      "type": "function",
      "constant": true
    },
    {
      "inputs": [],
      "name": "name",
      "outputs": [
        {
          "internalType": "string",
          "name": "",
          "type": "string"
        }
      ],
      "stateMutability": "view",
      "type": "function",
      "constant": true
    },
    {
      "inputs": [],
      "name": "owner",
      "outputs": [
        {
          "internalType": "address",
          "name": "",
          "type": "address"
        }
      ],
      "stateMutability": "view",
      "type": "function",
      "constant": true
    },
    {
      "inputs": [
        {
          "internalType": "uint256",
          "name": "tokenId",
          "type": "uint256"
        }
      ],
      "name": "ownerOf",
      "outputs": [
        {
          "internalType": "address",
          "name": "",
          "type": "address"
        }
      ],
      "stateMutability": "view",
      "type": "function",
      "constant": true
    },
    {
      "inputs": [],
      "name": "renounceOwnership",
      "outputs": [],
      "stateMutability": "nonpayable",
      "type": "function"
    },
    {
      "inputs": [
        {
          "internalType": "address",
          "name": "from",
          "type": "address"
        },
        {
          "internalType": "address",
          "name": "to",
          "type": "address"
        },
        {
          "internalType": "uint256",
          "name": "tokenId",
          "type": "uint256"
        }
      ],
      "name": "safeTransferFrom",
      "outputs": [],
      "stateMutability": "nonpayable",
      "type": "function"
    },
    {
      "inputs": [
        {
          "internalType": "address",
          "name": "from",
          "type": "address"
        },
        {
          "internalType": "address",
          "name": "to",
          "type": "address"
        },
        {
          "internalType": "uint256",
          "name": "tokenId",
          "type": "uint256"
        },
        {
          "internalType": "bytes",
          "name": "_data",
          "type": "bytes"
        }
      ],
      "name": "safeTransferFrom",
      "outputs": [],
      "stateMutability": "nonpayable",
      "type": "function"
    },
    {
      "inputs": [
        {
          "internalType": "address",
          "name": "operator",
          "type": "address"
        },
        {
          "internalType": "bool",
          "name": "approved",
          "type": "bool"
        }
      ],
      "name": "setApprovalForAll",
      "outputs": [],
      "stateMutability": "nonpayable",
      "type": "function"
    },
    {
      "inputs": [
        {
          "internalType": "bytes4",
          "name": "interfaceId",
          "type": "bytes4"
        }
      ],
      "name": "supportsInterface",
      "outputs": [
        {
          "internalType": "bool",
          "name": "",
          "type": "bool"
        }
      ],
      "stateMutability": "view",
      "type": "function",
      "constant": true
    },
    {
      "inputs": [],
      "name": "symbol",
      "outputs": [
        {
          "internalType": "string",
          "name": "",
          "type": "string"
        }
      ],
      "stateMutability": "view",
      "type": "function",
      "constant": true
    },
    {
      "inputs": [
        {
          "internalType": "uint256",
          "name": "tokenId",
          "type": "uint256"
        }
      ],
      "name": "tokenURI",
      "outputs": [
        {
          "internalType": "string",
          "name": "",
          "type": "string"
        }
      ],
      "stateMutability": "view",
      "type": "function",
      "constant": true
    },
    {
      "inputs": [
        {
          "internalType": "address",
          "name": "from",
          "type": "address"
        },
        {
          "internalType": "address",
          "name": "to",
          "type": "address"
        },
        {
          "internalType": "uint256",
          "name": "tokenId",
          "type": "uint256"
        }
      ],
      "name": "transferFrom",
      "outputs": [],
      "stateMutability": "nonpayable",
      "type": "function"
    },
    {
      "inputs": [
        {
          "internalType": "address",
          "name": "newOwner",
          "type": "address"
        }
      ],
      "name": "transferOwnership",
      "outputs": [],
      "stateMutability": "nonpayable",
      "type": "function"
    },
    {
      "inputs": [],
      "name": "totalSupply",
      "outputs": [
        {
          "internalType": "uint256",
          "name": "total",
          "type": "uint256"
        }
      ],
      "stateMutability": "view",
      "type": "function",
      "constant": true
    },
    {
      "inputs": [
        {
          "internalType": "address",
          "name": "owner",
          "type": "address"
        }
      ],
      "name": "getAllCatsFor",
      "outputs": [
        {
          "internalType": "uint256[]",
          "name": "cats",
          "type": "uint256[]"
        }
      ],
      "stateMutability": "view",
      "type": "function",
      "constant": true
    },
    {
      "inputs": [
        {
          "internalType": "uint256",
          "name": "tokenId",
          "type": "uint256"
        }
      ],
      "name": "getKitty",
      "outputs": [
        {
          "internalType": "uint256",
          "name": "birthTime",
          "type": "uint256"
        },
        {
          "internalType": "uint256",
          "name": "mumId",
          "type": "uint256"
        },
        {
          "internalType": "uint256",
          "name": "dadId",
          "type": "uint256"
        },
        {
          "internalType": "uint256",
          "name": "generation",
          "type": "uint256"
        },
        {
          "internalType": "uint256",
          "name": "genes",
          "type": "uint256"
        }
      ],
      "stateMutability": "view",
      "type": "function",
      "constant": true
    },
    {
      "inputs": [
        {
          "internalType": "uint256",
          "name": "_id",
          "type": "uint256"
        }
      ],
      "name": "getKittyFilip",
      "outputs": [
        {
          "internalType": "uint256",
          "name": "birthTime",
          "type": "uint256"
        },
        {
          "internalType": "uint256",
          "name": "mumId",
          "type": "uint256"
        },
        {
          "internalType": "uint256",
          "name": "dadId",
          "type": "uint256"
        },
        {
          "internalType": "uint256",
          "name": "generation",
          "type": "uint256"
        },
        {
          "internalType": "uint256",
          "name": "genes",
          "type": "uint256"
        }
      ],
      "stateMutability": "view",
      "type": "function",
      "constant": true
    },
    {
      "inputs": [
        {
          "internalType": "uint256",
          "name": "_genes",
          "type": "uint256"
        }
      ],
      "name": "createKittyGen0",
      "outputs": [
        {
          "internalType": "uint256",
          "name": "",
          "type": "uint256"
        }
      ],
      "stateMutability": "nonpayable",
      "type": "function"
    }
  ],
  "bytecode": "0x60806040523480156200001157600080fd5b506040518060400160405280600c81526020017f6d7943727970746f4361747300000000000000000000000000000000000000008152506040518060400160405280600481526020017f4d43435400000000000000000000000000000000000000000000000000000000815250816000908051906020019062000096929190620001a6565b508060019080519060200190620000af929190620001a6565b505050620000d2620000c6620000d860201b60201c565b620000e060201b60201c565b620002bb565b600033905090565b6000600660009054906101000a900473ffffffffffffffffffffffffffffffffffffffff16905081600660006101000a81548173ffffffffffffffffffffffffffffffffffffffff021916908373ffffffffffffffffffffffffffffffffffffffff1602179055508173ffffffffffffffffffffffffffffffffffffffff168173ffffffffffffffffffffffffffffffffffffffff167f8be0079c531659141344cd1fd0a4f28419497f9722a3daafe3b4186f6b6457e060405160405180910390a35050565b828054620001b49062000256565b90600052602060002090601f016020900481019282620001d8576000855562000224565b82601f10620001f357805160ff191683800117855562000224565b8280016001018555821562000224579182015b828111156200022357825182559160200191906001019062000206565b5b50905062000233919062000237565b5090565b5b808211156200025257600081600090555060010162000238565b5090565b600060028204905060018216806200026f57607f821691505b602082108114156200028657620002856200028c565b5b50919050565b7f4e487b7100000000000000000000000000000000000000000000000000000000600052602260045260246000fd5b612fd080620002cb6000396000f3fe608060405234801561001057600080fd5b506004361061014d5760003560e01c8063715018a6116100c3578063d5a776ca1161007c578063d5a776ca146103b4578063de7880f5146103e4578063e985e9c514610402578063e98b7f4d14610432578063ef5e94aa14610466578063f2fde38b146104845761014d565b8063715018a6146103065780638da5cb5b1461031057806395d89b411461032e578063a22cb4651461034c578063b88d4fde14610368578063c87b56dd146103845761014d565b806318160ddd1161011557806318160ddd1461022057806323b872dd1461023e57806342842e0e1461025a5780635a64aafa146102765780636352211e146102a657806370a08231146102d65761014d565b806301ffc9a71461015257806306fdde0314610182578063081812fc146101a0578063095ea7b3146101d05780630dd1c2e8146101ec575b600080fd5b61016c60048036038101906101679190611f45565b6104a0565b604051610179919061242e565b60405180910390f35b61018a610582565b6040516101979190612449565b60405180910390f35b6101ba60048036038101906101b59190611f9f565b610614565b6040516101c79190612352565b60405180910390f35b6101ea60048036038101906101e59190611f05565b610699565b005b61020660048036038101906102019190611f9f565b6107b1565b604051610217959493929190612666565b60405180910390f35b610228610867565b604051610235919061264b565b60405180910390f35b61025860048036038101906102539190611def565b610874565b005b610274600480360381019061026f9190611def565b6108d4565b005b610290600480360381019061028b9190611d82565b6108f4565b60405161029d919061240c565b60405180910390f35b6102c060048036038101906102bb9190611f9f565b61098b565b6040516102cd9190612352565b60405180910390f35b6102f060048036038101906102eb9190611d82565b610a3d565b6040516102fd919061264b565b60405180910390f35b61030e610af5565b005b610318610b7d565b6040516103259190612352565b60405180910390f35b610336610ba7565b6040516103439190612449565b60405180910390f35b61036660048036038101906103619190611ec5565b610c39565b005b610382600480360381019061037d9190611e42565b610dba565b005b61039e60048036038101906103999190611f9f565b610e1c565b6040516103ab9190612449565b60405180910390f35b6103ce60048036038101906103c99190611f9f565b610ec3565b6040516103db919061264b565b60405180910390f35b6103ec610fb5565b6040516103f9919061264b565b60405180910390f35b61041c60048036038101906104179190611daf565b610fba565b604051610429919061242e565b60405180910390f35b61044c60048036038101906104479190611f9f565b61104e565b60405161045d959493929190612666565b60405180910390f35b61046e611104565b60405161047b919061264b565b60405180910390f35b61049e60048036038101906104999190611d82565b61110a565b005b60007f80ac58cd000000000000000000000000000000000000000000000000000000007bffffffffffffffffffffffffffffffffffffffffffffffffffffffff1916827bffffffffffffffffffffffffffffffffffffffffffffffffffffffff1916148061056b57507f5b5e139f000000000000000000000000000000000000000000000000000000007bffffffffffffffffffffffffffffffffffffffffffffffffffffffff1916827bffffffffffffffffffffffffffffffffffffffffffffffffffffffff1916145b8061057b575061057a82611202565b5b9050919050565b606060008054610591906128fc565b80601f01602080910402602001604051908101604052809291908181526020018280546105bd906128fc565b801561060a5780601f106105df5761010080835404028352916020019161060a565b820191906000526020600020905b8154815290600101906020018083116105ed57829003601f168201915b5050505050905090565b600061061f8261126c565b61065e576040517f08c379a00000000000000000000000000000000000000000000000000000000081526004016106559061258b565b60405180910390fd5b6004600083815260200190815260200160002060009054906101000a900473ffffffffffffffffffffffffffffffffffffffff169050919050565b60006106a48261098b565b90508073ffffffffffffffffffffffffffffffffffffffff168373ffffffffffffffffffffffffffffffffffffffff161415610715576040517f08c379a000000000000000000000000000000000000000000000000000000000815260040161070c9061260b565b60405180910390fd5b8073ffffffffffffffffffffffffffffffffffffffff166107346112d8565b73ffffffffffffffffffffffffffffffffffffffff16148061076357506107628161075d6112d8565b610fba565b5b6107a2576040517f08c379a00000000000000000000000000000000000000000000000000000000081526004016107999061252b565b60405180910390fd5b6107ac83836112e0565b505050565b600080600080600080600987815481106107ce576107cd612a66565b5b906000526020600020906002020190508060000160009054906101000a900467ffffffffffffffff1667ffffffffffffffff1695508060000160089054906101000a900463ffffffff1663ffffffff16945080600001600c9054906101000a900463ffffffff1663ffffffff1693508060000160109054906101000a900461ffff1661ffff169250806001015491505091939590929450565b6000600980549050905090565b61088561087f6112d8565b82611399565b6108c4576040517f08c379a00000000000000000000000000000000000000000000000000000000081526004016108bb9061262b565b60405180910390fd5b6108cf838383611477565b505050565b6108ef83838360405180602001604052806000815250610dba565b505050565b6060600860008373ffffffffffffffffffffffffffffffffffffffff1673ffffffffffffffffffffffffffffffffffffffff16815260200190815260200160002080548060200260200160405190810160405280929190818152602001828054801561097f57602002820191906000526020600020905b81548152602001906001019080831161096b575b50505050509050919050565b6000806002600084815260200190815260200160002060009054906101000a900473ffffffffffffffffffffffffffffffffffffffff169050600073ffffffffffffffffffffffffffffffffffffffff168173ffffffffffffffffffffffffffffffffffffffff161415610a34576040517f08c379a0000000000000000000000000000000000000000000000000000000008152600401610a2b9061256b565b60405180910390fd5b80915050919050565b60008073ffffffffffffffffffffffffffffffffffffffff168273ffffffffffffffffffffffffffffffffffffffff161415610aae576040517f08c379a0000000000000000000000000000000000000000000000000000000008152600401610aa59061254b565b60405180910390fd5b600360008373ffffffffffffffffffffffffffffffffffffffff1673ffffffffffffffffffffffffffffffffffffffff168152602001908152602001600020549050919050565b610afd6112d8565b73ffffffffffffffffffffffffffffffffffffffff16610b1b610b7d565b73ffffffffffffffffffffffffffffffffffffffff1614610b71576040517f08c379a0000000000000000000000000000000000000000000000000000000008152600401610b68906125ab565b60405180910390fd5b610b7b60006116d3565b565b6000600660009054906101000a900473ffffffffffffffffffffffffffffffffffffffff16905090565b606060018054610bb6906128fc565b80601f0160208091040260200160405190810160405280929190818152602001828054610be2906128fc565b8015610c2f5780601f10610c0457610100808354040283529160200191610c2f565b820191906000526020600020905b815481529060010190602001808311610c1257829003601f168201915b5050505050905090565b610c416112d8565b73ffffffffffffffffffffffffffffffffffffffff168273ffffffffffffffffffffffffffffffffffffffff161415610caf576040517f08c379a0000000000000000000000000000000000000000000000000000000008152600401610ca6906124eb565b60405180910390fd5b8060056000610cbc6112d8565b73ffffffffffffffffffffffffffffffffffffffff1673ffffffffffffffffffffffffffffffffffffffff16815260200190815260200160002060008473ffffffffffffffffffffffffffffffffffffffff1673ffffffffffffffffffffffffffffffffffffffff16815260200190815260200160002060006101000a81548160ff0219169083151502179055508173ffffffffffffffffffffffffffffffffffffffff16610d696112d8565b73ffffffffffffffffffffffffffffffffffffffff167f17307eab39ab6107e8899845ad3d59bd9653f200f220920489ca2b5937696c3183604051610dae919061242e565b60405180910390a35050565b610dcb610dc56112d8565b83611399565b610e0a576040517f08c379a0000000000000000000000000000000000000000000000000000000008152600401610e019061262b565b60405180910390fd5b610e1684848484611799565b50505050565b6060610e278261126c565b610e66576040517f08c379a0000000000000000000000000000000000000000000000000000000008152600401610e5d906125eb565b60405180910390fd5b6000610e706117f5565b90506000815111610e905760405180602001604052806000815250610ebb565b80610e9a8461180c565b604051602001610eab92919061232e565b6040516020818303038152906040525b915050919050565b6000610ecd6112d8565b73ffffffffffffffffffffffffffffffffffffffff16610eeb610b7d565b73ffffffffffffffffffffffffffffffffffffffff1614610f41576040517f08c379a0000000000000000000000000000000000000000000000000000000008152600401610f38906125ab565b60405180910390fd5b600a6007541115610f87576040517f08c379a0000000000000000000000000000000000000000000000000000000008152600401610f7e906124ab565b60405180910390fd5b60076000815480929190610f9a9061295f565b9190505550610fae6000806000853361196d565b9050919050565b600a81565b6000600560008473ffffffffffffffffffffffffffffffffffffffff1673ffffffffffffffffffffffffffffffffffffffff16815260200190815260200160002060008373ffffffffffffffffffffffffffffffffffffffff1673ffffffffffffffffffffffffffffffffffffffff16815260200190815260200160002060009054906101000a900460ff16905092915050565b6000806000806000806009878154811061106b5761106a612a66565b5b906000526020600020906002020190508060000160009054906101000a900467ffffffffffffffff1667ffffffffffffffff168160000160089054906101000a900463ffffffff1663ffffffff1682600001600c9054906101000a900463ffffffff1663ffffffff168360000160109054906101000a900461ffff1661ffff168460010154955095509550955095505091939590929450565b60075481565b6111126112d8565b73ffffffffffffffffffffffffffffffffffffffff16611130610b7d565b73ffffffffffffffffffffffffffffffffffffffff1614611186576040517f08c379a000000000000000000000000000000000000000000000000000000000815260040161117d906125ab565b60405180910390fd5b600073ffffffffffffffffffffffffffffffffffffffff168173ffffffffffffffffffffffffffffffffffffffff1614156111f6576040517f08c379a00000000000000000000000000000000000000000000000000000000081526004016111ed9061248b565b60405180910390fd5b6111ff816116d3565b50565b60007f01ffc9a7000000000000000000000000000000000000000000000000000000007bffffffffffffffffffffffffffffffffffffffffffffffffffffffff1916827bffffffffffffffffffffffffffffffffffffffffffffffffffffffff1916149050919050565b60008073ffffffffffffffffffffffffffffffffffffffff166002600084815260200190815260200160002060009054906101000a900473ffffffffffffffffffffffffffffffffffffffff1673ffffffffffffffffffffffffffffffffffffffff1614159050919050565b600033905090565b816004600083815260200190815260200160002060006101000a81548173ffffffffffffffffffffffffffffffffffffffff021916908373ffffffffffffffffffffffffffffffffffffffff160217905550808273ffffffffffffffffffffffffffffffffffffffff166113538361098b565b73ffffffffffffffffffffffffffffffffffffffff167f8c5be1e5ebec7d5bd14f71427d1e84f3dd0314c0f7b2291e5b200ac8c7c3b92560405160405180910390a45050565b60006113a48261126c565b6113e3576040517f08c379a00000000000000000000000000000000000000000000000000000000081526004016113da9061250b565b60405180910390fd5b60006113ee8361098b565b90508073ffffffffffffffffffffffffffffffffffffffff168473ffffffffffffffffffffffffffffffffffffffff16148061145d57508373ffffffffffffffffffffffffffffffffffffffff1661144584610614565b73ffffffffffffffffffffffffffffffffffffffff16145b8061146e575061146d8185610fba565b5b91505092915050565b8273ffffffffffffffffffffffffffffffffffffffff166114978261098b565b73ffffffffffffffffffffffffffffffffffffffff16146114ed576040517f08c379a00000000000000000000000000000000000000000000000000000000081526004016114e4906125cb565b60405180910390fd5b600073ffffffffffffffffffffffffffffffffffffffff168273ffffffffffffffffffffffffffffffffffffffff16141561155d576040517f08c379a0000000000000000000000000000000000000000000000000000000008152600401611554906124cb565b60405180910390fd5b611568838383611afa565b6115736000826112e0565b6001600360008573ffffffffffffffffffffffffffffffffffffffff1673ffffffffffffffffffffffffffffffffffffffff16815260200190815260200160002060008282546115c39190612812565b925050819055506001600360008473ffffffffffffffffffffffffffffffffffffffff1673ffffffffffffffffffffffffffffffffffffffff168152602001908152602001600020600082825461161a919061278b565b92505081905550816002600083815260200190815260200160002060006101000a81548173ffffffffffffffffffffffffffffffffffffffff021916908373ffffffffffffffffffffffffffffffffffffffff160217905550808273ffffffffffffffffffffffffffffffffffffffff168473ffffffffffffffffffffffffffffffffffffffff167fddf252ad1be2c89b69c2b068fc378daa952ba7f163c4a11628f55a4df523b3ef60405160405180910390a4505050565b6000600660009054906101000a900473ffffffffffffffffffffffffffffffffffffffff16905081600660006101000a81548173ffffffffffffffffffffffffffffffffffffffff021916908373ffffffffffffffffffffffffffffffffffffffff1602179055508173ffffffffffffffffffffffffffffffffffffffff168173ffffffffffffffffffffffffffffffffffffffff167f8be0079c531659141344cd1fd0a4f28419497f9722a3daafe3b4186f6b6457e060405160405180910390a35050565b6117a4848484611477565b6117b084848484611aff565b6117ef576040517f08c379a00000000000000000000000000000000000000000000000000000000081526004016117e69061246b565b60405180910390fd5b50505050565b606060405180602001604052806000815250905090565b60606000821415611854576040518060400160405280600181526020017f30000000000000000000000000000000000000000000000000000000000000008152509050611968565b600082905060005b6000821461188657808061186f9061295f565b915050600a8261187f91906127e1565b915061185c565b60008167ffffffffffffffff8111156118a2576118a1612a95565b5b6040519080825280601f01601f1916602001820160405280156118d45781602001600182028036833780820191505090505b5090505b60008514611961576001826118ed9190612812565b9150600a856118fc91906129a8565b6030611908919061278b565b60f81b81838151811061191e5761191d612a66565b5b60200101907effffffffffffffffffffffffffffffffffffffffffffffffffffffffffffff1916908160001a905350600a8561195a91906127e1565b94506118d8565b8093505050505b919050565b6000806040518060a001604052804267ffffffffffffffff1681526020018863ffffffff1681526020018763ffffffff1681526020018661ffff168152602001858152509050600981908060018154018082558091505060019003906000526020600020906002020160009091909190915060008201518160000160006101000a81548167ffffffffffffffff021916908367ffffffffffffffff16021790555060208201518160000160086101000a81548163ffffffff021916908363ffffffff160217905550604082015181600001600c6101000a81548163ffffffff021916908363ffffffff16021790555060608201518160000160106101000a81548161ffff021916908361ffff16021790555060808201518160010155505060006001600980549050611a9f9190612812565b90507f0a5311bd2a6608f08a180df2ee7c5946819a649b204b554bb8e39825b2c50ad584828a8a89604051611ad89594939291906123b9565b60405180910390a1611aec60008583611477565b809250505095945050505050565b505050565b6000611b208473ffffffffffffffffffffffffffffffffffffffff16611c96565b15611c89578373ffffffffffffffffffffffffffffffffffffffff1663150b7a02611b496112d8565b8786866040518563ffffffff1660e01b8152600401611b6b949392919061236d565b602060405180830381600087803b158015611b8557600080fd5b505af1925050508015611bb657506040513d601f19601f82011682018060405250810190611bb39190611f72565b60015b611c39573d8060008114611be6576040519150601f19603f3d011682016040523d82523d6000602084013e611beb565b606091505b50600081511415611c31576040517f08c379a0000000000000000000000000000000000000000000000000000000008152600401611c289061246b565b60405180910390fd5b805181602001fd5b63150b7a0260e01b7bffffffffffffffffffffffffffffffffffffffffffffffffffffffff1916817bffffffffffffffffffffffffffffffffffffffffffffffffffffffff191614915050611c8e565b600190505b949350505050565b600080823b905060008111915050919050565b6000611cbc611cb7846126de565b6126b9565b905082815260208101848484011115611cd857611cd7612ac9565b5b611ce38482856128ba565b509392505050565b600081359050611cfa81612f3e565b92915050565b600081359050611d0f81612f55565b92915050565b600081359050611d2481612f6c565b92915050565b600081519050611d3981612f6c565b92915050565b600082601f830112611d5457611d53612ac4565b5b8135611d64848260208601611ca9565b91505092915050565b600081359050611d7c81612f83565b92915050565b600060208284031215611d9857611d97612ad3565b5b6000611da684828501611ceb565b91505092915050565b60008060408385031215611dc657611dc5612ad3565b5b6000611dd485828601611ceb565b9250506020611de585828601611ceb565b9150509250929050565b600080600060608486031215611e0857611e07612ad3565b5b6000611e1686828701611ceb565b9350506020611e2786828701611ceb565b9250506040611e3886828701611d6d565b9150509250925092565b60008060008060808587031215611e5c57611e5b612ad3565b5b6000611e6a87828801611ceb565b9450506020611e7b87828801611ceb565b9350506040611e8c87828801611d6d565b925050606085013567ffffffffffffffff811115611ead57611eac612ace565b5b611eb987828801611d3f565b91505092959194509250565b60008060408385031215611edc57611edb612ad3565b5b6000611eea85828601611ceb565b9250506020611efb85828601611d00565b9150509250929050565b60008060408385031215611f1c57611f1b612ad3565b5b6000611f2a85828601611ceb565b9250506020611f3b85828601611d6d565b9150509250929050565b600060208284031215611f5b57611f5a612ad3565b5b6000611f6984828501611d15565b91505092915050565b600060208284031215611f8857611f87612ad3565b5b6000611f9684828501611d2a565b91505092915050565b600060208284031215611fb557611fb4612ad3565b5b6000611fc384828501611d6d565b91505092915050565b6000611fd88383612310565b60208301905092915050565b611fed81612846565b82525050565b6000611ffe8261271f565b612008818561274d565b93506120138361270f565b8060005b8381101561204457815161202b8882611fcc565b975061203683612740565b925050600181019050612017565b5085935050505092915050565b61205a81612858565b82525050565b600061206b8261272a565b612075818561275e565b93506120858185602086016128c9565b61208e81612ad8565b840191505092915050565b60006120a482612735565b6120ae818561276f565b93506120be8185602086016128c9565b6120c781612ad8565b840191505092915050565b60006120dd82612735565b6120e78185612780565b93506120f78185602086016128c9565b80840191505092915050565b600061211060328361276f565b915061211b82612ae9565b604082019050919050565b600061213360268361276f565b915061213e82612b38565b604082019050919050565b6000612156602e8361276f565b915061216182612b87565b604082019050919050565b600061217960248361276f565b915061218482612bd6565b604082019050919050565b600061219c60198361276f565b91506121a782612c25565b602082019050919050565b60006121bf602c8361276f565b91506121ca82612c4e565b604082019050919050565b60006121e260388361276f565b91506121ed82612c9d565b604082019050919050565b6000612205602a8361276f565b915061221082612cec565b604082019050919050565b600061222860298361276f565b915061223382612d3b565b604082019050919050565b600061224b602c8361276f565b915061225682612d8a565b604082019050919050565b600061226e60208361276f565b915061227982612dd9565b602082019050919050565b600061229160298361276f565b915061229c82612e02565b604082019050919050565b60006122b4602f8361276f565b91506122bf82612e51565b604082019050919050565b60006122d760218361276f565b91506122e282612ea0565b604082019050919050565b60006122fa60318361276f565b915061230582612eef565b604082019050919050565b612319816128b0565b82525050565b612328816128b0565b82525050565b600061233a82856120d2565b915061234682846120d2565b91508190509392505050565b60006020820190506123676000830184611fe4565b92915050565b60006080820190506123826000830187611fe4565b61238f6020830186611fe4565b61239c604083018561231f565b81810360608301526123ae8184612060565b905095945050505050565b600060a0820190506123ce6000830188611fe4565b6123db602083018761231f565b6123e8604083018661231f565b6123f5606083018561231f565b612402608083018461231f565b9695505050505050565b600060208201905081810360008301526124268184611ff3565b905092915050565b60006020820190506124436000830184612051565b92915050565b600060208201905081810360008301526124638184612099565b905092915050565b6000602082019050818103600083015261248481612103565b9050919050565b600060208201905081810360008301526124a481612126565b9050919050565b600060208201905081810360008301526124c481612149565b9050919050565b600060208201905081810360008301526124e48161216c565b9050919050565b600060208201905081810360008301526125048161218f565b9050919050565b60006020820190508181036000830152612524816121b2565b9050919050565b60006020820190508181036000830152612544816121d5565b9050919050565b60006020820190508181036000830152612564816121f8565b9050919050565b600060208201905081810360008301526125848161221b565b9050919050565b600060208201905081810360008301526125a48161223e565b9050919050565b600060208201905081810360008301526125c481612261565b9050919050565b600060208201905081810360008301526125e481612284565b9050919050565b60006020820190508181036000830152612604816122a7565b9050919050565b60006020820190508181036000830152612624816122ca565b9050919050565b60006020820190508181036000830152612644816122ed565b9050919050565b6000602082019050612660600083018461231f565b92915050565b600060a08201905061267b600083018861231f565b612688602083018761231f565b612695604083018661231f565b6126a2606083018561231f565b6126af608083018461231f565b9695505050505050565b60006126c36126d4565b90506126cf828261292e565b919050565b6000604051905090565b600067ffffffffffffffff8211156126f9576126f8612a95565b5b61270282612ad8565b9050602081019050919050565b6000819050602082019050919050565b600081519050919050565b600081519050919050565b600081519050919050565b6000602082019050919050565b600082825260208201905092915050565b600082825260208201905092915050565b600082825260208201905092915050565b600081905092915050565b6000612796826128b0565b91506127a1836128b0565b9250827fffffffffffffffffffffffffffffffffffffffffffffffffffffffffffffffff038211156127d6576127d56129d9565b5b828201905092915050565b60006127ec826128b0565b91506127f7836128b0565b92508261280757612806612a08565b5b828204905092915050565b600061281d826128b0565b9150612828836128b0565b92508282101561283b5761283a6129d9565b5b828203905092915050565b600061285182612890565b9050919050565b60008115159050919050565b60007fffffffff0000000000000000000000000000000000000000000000000000000082169050919050565b600073ffffffffffffffffffffffffffffffffffffffff82169050919050565b6000819050919050565b82818337600083830152505050565b60005b838110156128e75780820151818401526020810190506128cc565b838111156128f6576000848401525b50505050565b6000600282049050600182168061291457607f821691505b6020821081141561292857612927612a37565b5b50919050565b61293782612ad8565b810181811067ffffffffffffffff8211171561295657612955612a95565b5b80604052505050565b600061296a826128b0565b91507fffffffffffffffffffffffffffffffffffffffffffffffffffffffffffffffff82141561299d5761299c6129d9565b5b600182019050919050565b60006129b3826128b0565b91506129be836128b0565b9250826129ce576129cd612a08565b5b828206905092915050565b7f4e487b7100000000000000000000000000000000000000000000000000000000600052601160045260246000fd5b7f4e487b7100000000000000000000000000000000000000000000000000000000600052601260045260246000fd5b7f4e487b7100000000000000000000000000000000000000000000000000000000600052602260045260246000fd5b7f4e487b7100000000000000000000000000000000000000000000000000000000600052603260045260246000fd5b7f4e487b7100000000000000000000000000000000000000000000000000000000600052604160045260246000fd5b600080fd5b600080fd5b600080fd5b600080fd5b6000601f19601f8301169050919050565b7f4552433732313a207472616e7366657220746f206e6f6e20455243373231526560008201527f63656976657220696d706c656d656e7465720000000000000000000000000000602082015250565b7f4f776e61626c653a206e6577206f776e657220697320746865207a65726f206160008201527f6464726573730000000000000000000000000000000000000000000000000000602082015250565b7f47656e20302073686f756c64206265206c657373207468616e2063726561746960008201527f6f6e206c696d69742067656e2030000000000000000000000000000000000000602082015250565b7f4552433732313a207472616e7366657220746f20746865207a65726f2061646460008201527f7265737300000000000000000000000000000000000000000000000000000000602082015250565b7f4552433732313a20617070726f766520746f2063616c6c657200000000000000600082015250565b7f4552433732313a206f70657261746f7220717565727920666f72206e6f6e657860008201527f697374656e7420746f6b656e0000000000000000000000000000000000000000602082015250565b7f4552433732313a20617070726f76652063616c6c6572206973206e6f74206f7760008201527f6e6572206e6f7220617070726f76656420666f7220616c6c0000000000000000602082015250565b7f4552433732313a2062616c616e636520717565727920666f7220746865207a6560008201527f726f206164647265737300000000000000000000000000000000000000000000602082015250565b7f4552433732313a206f776e657220717565727920666f72206e6f6e657869737460008201527f656e7420746f6b656e0000000000000000000000000000000000000000000000602082015250565b7f4552433732313a20617070726f76656420717565727920666f72206e6f6e657860008201527f697374656e7420746f6b656e0000000000000000000000000000000000000000602082015250565b7f4f776e61626c653a2063616c6c6572206973206e6f7420746865206f776e6572600082015250565b7f4552433732313a207472616e73666572206f6620746f6b656e2074686174206960008201527f73206e6f74206f776e0000000000000000000000000000000000000000000000602082015250565b7f4552433732314d657461646174613a2055524920717565727920666f72206e6f60008201527f6e6578697374656e7420746f6b656e0000000000000000000000000000000000602082015250565b7f4552433732313a20617070726f76616c20746f2063757272656e74206f776e6560008201527f7200000000000000000000000000000000000000000000000000000000000000602082015250565b7f4552433732313a207472616e736665722063616c6c6572206973206e6f74206f60008201527f776e6572206e6f7220617070726f766564000000000000000000000000000000602082015250565b612f4781612846565b8114612f5257600080fd5b50565b612f5e81612858565b8114612f6957600080fd5b50565b612f7581612864565b8114612f8057600080fd5b50565b612f8c816128b0565b8114612f9757600080fd5b5056fea26469706673582212206da34e15ed3825c5edd2b4bbab700a0a6363e407492c4fe4c65a645acdcb287964736f6c63430008060033",
  "immutableReferences": {},
  "source": "// SPDX-License-Identifier: MIT\r\npragma solidity ^0.8.4;\r\n\r\nimport \"@openzeppelin/contracts/token/ERC721/ERC721.sol\";\r\nimport \"@openzeppelin/contracts/access/Ownable.sol\";\r\n\r\ncontract myCryptoCats is ERC721, Ownable {\r\n\r\n  constructor () ERC721( \"myCryptoCats\", \"MCCT\" ) {\r\n  }\r\n\r\n   bytes4 internal constant MAGIC_ERC721_RECEIVED = (bytes4(keccak256(\"onERC721Received(address,address,uint256,bytes)\")));\r\n\r\n   // call onERC721Received in the _to contract\r\n  bytes4 private constant _INTERFACE_ID_ERC721 = 0x80ac58cd;\r\n\r\n  // bytes4(keccat256(\"supportInterface(bytes4)\");\r\n  bytes4 private constant _INTERFACE_ID_ERC165 = 0x01ffc9a7;\r\n\r\n  event Birth(address owner, uint256 kittenId, uint256 mumId, uint256 dadId, uint256 genes);\r\n\r\n  uint256 public constant CERATION_LIMIT_GEN0 = 10; // max num of cats to be generated\r\n\r\n  uint256 public gen0Counter;\r\n\r\n  //an address to a number of cats in an array\r\n  mapping(address => uint256[]) ownerToCats;\r\n\r\n  struct Kitty{\r\n  uint64 birthTime;\r\n  uint32 mumId;\r\n  uint32 dadId;\r\n  uint16 generation;\r\n  uint256 genes;\r\n}\r\n\r\nKitty[] kitties;\r\n\r\n  function totalSupply() public view returns (uint256 total) {\r\n    return kitties.length;\r\n  }\r\n\r\n  function getAllCatsFor(address owner) public view returns (uint[] memory cats) {\r\n    return  ownerToCats[owner];\r\n  }\r\n\r\n  function getKitty(uint256 tokenId) public view returns (uint256 birthTime, uint256 mumId, uint256 dadId, uint256 generation, uint256 genes ) {\r\n    Kitty storage returnKitty = kitties[tokenId];\r\n    return (uint256(returnKitty.birthTime), uint256(returnKitty.mumId), uint256(returnKitty.dadId), uint256(returnKitty.generation), uint256(returnKitty.genes) );\r\n  }\r\n\r\n  function getKittyFilip(uint256 _id) public view returns (\r\n    uint256 birthTime,\r\n    uint256 mumId,\r\n    uint256 dadId,\r\n    uint256 generation,\r\n    uint256 genes \r\n    ) {\r\n\r\n    Kitty storage kitty = kitties[_id];\r\n\r\n    birthTime = uint256(kitty.birthTime);\r\n    mumId = uint256(kitty.mumId);\r\n    dadId = uint256(kitty.dadId);\r\n    generation = uint256(kitty.generation);\r\n    genes = uint256(kitty.genes);\r\n    }\r\n\r\n    function createKittyGen0(uint256 _genes) public onlyOwner returns(uint256) { // needs onlyOwner\r\n      require(gen0Counter <= CERATION_LIMIT_GEN0, \"Gen 0 should be less than creation limit gen 0\" );\r\n\r\n      gen0Counter++;\r\n\r\n      // mum, dad and generation is 0\r\n    // Gen0 have no owners; they are owned by the contract\r\n    return _createKitty(0,0,0, _genes, msg.sender); // msg.sender could also be -- address(this) - we are giving cats to owner\r\n    }\r\n\r\n  // create cats by generation and by breeding\r\n  // returns cat id\r\n  function _createKitty(\r\n    uint256 _mumId,\r\n    uint256 _dadId,\r\n    uint256 _generation, //1,2,3..etc\r\n    uint256 _genes, // recipient\r\n    address owner\r\n  ) private returns(uint256) {\r\n    Kitty memory newKitties = Kitty({\r\n      genes: _genes,\r\n      birthTime: uint64(block.timestamp),\r\n      mumId: uint32(_mumId),\r\n      dadId: uint32(_dadId),\r\n      generation: uint16(_generation)\r\n    });\r\n\r\n    kitties.push(newKitties); // returns the size of array - 1 for the first cat\r\n\r\n    uint256 newKittenId = kitties.length -1; // 0-1\r\n\r\n    emit Birth(owner, newKittenId, _mumId, _dadId, _genes); // birth of a cat from 0 (standard)\r\n\r\n    _transfer(address(0), owner, newKittenId);\r\n\r\n    return newKittenId; //returns 256 bit integer\r\n\r\n  }\r\n  \r\n\r\n}",
  "sourcePath": "C:/Users/benX/Documents/ethereum_course_advanced/digitalCats/contracts/cryptoCats.sol",
  "compiler": {
    "name": "solc",
    "version": "0.8.6+commit.11564f7e.Emscripten.clang"
  },
  "schemaVersion": "3.4.1",
  "updatedAt": "2021-07-07T21:51:29.610Z",
  "networkType": "ethereum",
  "devdoc": {
    "kind": "dev",
    "methods": {
      "approve(address,uint256)": {
        "details": "See {IERC721-approve}."
      },
      "balanceOf(address)": {
        "details": "See {IERC721-balanceOf}."
      },
      "getApproved(uint256)": {
        "details": "See {IERC721-getApproved}."
      },
      "isApprovedForAll(address,address)": {
        "details": "See {IERC721-isApprovedForAll}."
      },
      "name()": {
        "details": "See {IERC721Metadata-name}."
      },
      "owner()": {
        "details": "Returns the address of the current owner."
      },
      "ownerOf(uint256)": {
        "details": "See {IERC721-ownerOf}."
      },
      "renounceOwnership()": {
        "details": "Leaves the contract without owner. It will not be possible to call `onlyOwner` functions anymore. Can only be called by the current owner. NOTE: Renouncing ownership will leave the contract without an owner, thereby removing any functionality that is only available to the owner."
      },
      "safeTransferFrom(address,address,uint256)": {
        "details": "See {IERC721-safeTransferFrom}."
      },
      "safeTransferFrom(address,address,uint256,bytes)": {
        "details": "See {IERC721-safeTransferFrom}."
      },
      "setApprovalForAll(address,bool)": {
        "details": "See {IERC721-setApprovalForAll}."
      },
      "supportsInterface(bytes4)": {
        "details": "See {IERC165-supportsInterface}."
      },
      "symbol()": {
        "details": "See {IERC721Metadata-symbol}."
      },
      "tokenURI(uint256)": {
        "details": "See {IERC721Metadata-tokenURI}."
      },
      "transferFrom(address,address,uint256)": {
        "details": "See {IERC721-transferFrom}."
      },
      "transferOwnership(address)": {
        "details": "Transfers ownership of the contract to a new account (`newOwner`). Can only be called by the current owner."
      }
    },
    "version": 1
  },
  "userdoc": {
    "kind": "user",
    "methods": {},
    "version": 1
  }
}