{
  "contractName": "myCryptoCats",
  "abi": [
    {
      "inputs": [],
      "stateMutability": "nonpayable",
      "type": "constructor"
    },
    {
      "anonymous": false,
      "inputs": [
        {
          "indexed": true,
          "internalType": "address",
          "name": "owner",
          "type": "address"
        },
        {
          "indexed": true,
          "internalType": "address",
          "name": "approved",
          "type": "address"
        },
        {
          "indexed": true,
          "internalType": "uint256",
          "name": "tokenId",
          "type": "uint256"
        }
      ],
      "name": "Approval",
      "type": "event"
    },
    {
      "anonymous": false,
      "inputs": [
        {
          "indexed": true,
          "internalType": "address",
          "name": "owner",
          "type": "address"
        },
        {
          "indexed": true,
          "internalType": "address",
          "name": "operator",
          "type": "address"
        },
        {
          "indexed": false,
          "internalType": "bool",
          "name": "approved",
          "type": "bool"
        }
      ],
      "name": "ApprovalForAll",
      "type": "event"
    },
    {
      "anonymous": false,
      "inputs": [
        {
          "indexed": false,
          "internalType": "address",
          "name": "owner",
          "type": "address"
        },
        {
          "indexed": false,
          "internalType": "uint256",
          "name": "kittenId",
          "type": "uint256"
        },
        {
          "indexed": false,
          "internalType": "uint256",
          "name": "mumId",
          "type": "uint256"
        },
        {
          "indexed": false,
          "internalType": "uint256",
          "name": "dadId",
          "type": "uint256"
        },
        {
          "indexed": false,
          "internalType": "uint256",
          "name": "genes",
          "type": "uint256"
        }
      ],
      "name": "Birth",
      "type": "event"
    },
    {
      "anonymous": false,
      "inputs": [
        {
          "indexed": true,
          "internalType": "address",
          "name": "previousOwner",
          "type": "address"
        },
        {
          "indexed": true,
          "internalType": "address",
          "name": "newOwner",
          "type": "address"
        }
      ],
      "name": "OwnershipTransferred",
      "type": "event"
    },
    {
      "anonymous": false,
      "inputs": [
        {
          "indexed": true,
          "internalType": "address",
          "name": "from",
          "type": "address"
        },
        {
          "indexed": true,
          "internalType": "address",
          "name": "to",
          "type": "address"
        },
        {
          "indexed": true,
          "internalType": "uint256",
          "name": "tokenId",
          "type": "uint256"
        }
      ],
      "name": "Transfer",
      "type": "event"
    },
    {
      "inputs": [
        {
          "internalType": "address",
          "name": "to",
          "type": "address"
        },
        {
          "internalType": "uint256",
          "name": "tokenId",
          "type": "uint256"
        }
      ],
      "name": "approve",
      "outputs": [],
      "stateMutability": "nonpayable",
      "type": "function"
    },
    {
      "inputs": [
        {
          "internalType": "address",
          "name": "owner",
          "type": "address"
        }
      ],
      "name": "balanceOf",
      "outputs": [
        {
          "internalType": "uint256",
          "name": "",
          "type": "uint256"
        }
      ],
      "stateMutability": "view",
      "type": "function",
      "constant": true
    },
    {
      "inputs": [
        {
          "internalType": "uint256",
          "name": "tokenId",
          "type": "uint256"
        }
      ],
      "name": "getApproved",
      "outputs": [
        {
          "internalType": "address",
          "name": "",
          "type": "address"
        }
      ],
      "stateMutability": "view",
      "type": "function",
      "constant": true
    },
    {
      "inputs": [
        {
          "internalType": "address",
          "name": "owner",
          "type": "address"
        },
        {
          "internalType": "address",
          "name": "operator",
          "type": "address"
        }
      ],
      "name": "isApprovedForAll",
      "outputs": [
        {
          "internalType": "bool",
          "name": "",
          "type": "bool"
        }
      ],
      "stateMutability": "view",
      "type": "function",
      "constant": true
    },
    {
      "inputs": [],
      "name": "name",
      "outputs": [
        {
          "internalType": "string",
          "name": "",
          "type": "string"
        }
      ],
      "stateMutability": "view",
      "type": "function",
      "constant": true
    },
    {
      "inputs": [],
      "name": "owner",
      "outputs": [
        {
          "internalType": "address",
          "name": "",
          "type": "address"
        }
      ],
      "stateMutability": "view",
      "type": "function",
      "constant": true
    },
    {
      "inputs": [
        {
          "internalType": "uint256",
          "name": "tokenId",
          "type": "uint256"
        }
      ],
      "name": "ownerOf",
      "outputs": [
        {
          "internalType": "address",
          "name": "",
          "type": "address"
        }
      ],
      "stateMutability": "view",
      "type": "function",
      "constant": true
    },
    {
      "inputs": [],
      "name": "renounceOwnership",
      "outputs": [],
      "stateMutability": "nonpayable",
      "type": "function"
    },
    {
      "inputs": [
        {
          "internalType": "address",
          "name": "from",
          "type": "address"
        },
        {
          "internalType": "address",
          "name": "to",
          "type": "address"
        },
        {
          "internalType": "uint256",
          "name": "tokenId",
          "type": "uint256"
        }
      ],
      "name": "safeTransferFrom",
      "outputs": [],
      "stateMutability": "nonpayable",
      "type": "function"
    },
    {
      "inputs": [
        {
          "internalType": "address",
          "name": "from",
          "type": "address"
        },
        {
          "internalType": "address",
          "name": "to",
          "type": "address"
        },
        {
          "internalType": "uint256",
          "name": "tokenId",
          "type": "uint256"
        },
        {
          "internalType": "bytes",
          "name": "_data",
          "type": "bytes"
        }
      ],
      "name": "safeTransferFrom",
      "outputs": [],
      "stateMutability": "nonpayable",
      "type": "function"
    },
    {
      "inputs": [
        {
          "internalType": "address",
          "name": "operator",
          "type": "address"
        },
        {
          "internalType": "bool",
          "name": "approved",
          "type": "bool"
        }
      ],
      "name": "setApprovalForAll",
      "outputs": [],
      "stateMutability": "nonpayable",
      "type": "function"
    },
    {
      "inputs": [
        {
          "internalType": "bytes4",
          "name": "interfaceId",
          "type": "bytes4"
        }
      ],
      "name": "supportsInterface",
      "outputs": [
        {
          "internalType": "bool",
          "name": "",
          "type": "bool"
        }
      ],
      "stateMutability": "view",
      "type": "function",
      "constant": true
    },
    {
      "inputs": [],
      "name": "symbol",
      "outputs": [
        {
          "internalType": "string",
          "name": "",
          "type": "string"
        }
      ],
      "stateMutability": "view",
      "type": "function",
      "constant": true
    },
    {
      "inputs": [
        {
          "internalType": "uint256",
          "name": "tokenId",
          "type": "uint256"
        }
      ],
      "name": "tokenURI",
      "outputs": [
        {
          "internalType": "string",
          "name": "",
          "type": "string"
        }
      ],
      "stateMutability": "view",
      "type": "function",
      "constant": true
    },
    {
      "inputs": [
        {
          "internalType": "address",
          "name": "from",
          "type": "address"
        },
        {
          "internalType": "address",
          "name": "to",
          "type": "address"
        },
        {
          "internalType": "uint256",
          "name": "tokenId",
          "type": "uint256"
        }
      ],
      "name": "transferFrom",
      "outputs": [],
      "stateMutability": "nonpayable",
      "type": "function"
    },
    {
      "inputs": [
        {
          "internalType": "address",
          "name": "newOwner",
          "type": "address"
        }
      ],
      "name": "transferOwnership",
      "outputs": [],
      "stateMutability": "nonpayable",
      "type": "function"
    },
    {
      "inputs": [],
      "name": "totalSupply",
      "outputs": [
        {
          "internalType": "uint256",
          "name": "total",
          "type": "uint256"
        }
      ],
      "stateMutability": "view",
      "type": "function",
      "constant": true
    },
    {
      "inputs": [
        {
          "internalType": "address",
          "name": "owner",
          "type": "address"
        }
      ],
      "name": "getAllCatsFor",
      "outputs": [
        {
          "internalType": "uint256[]",
          "name": "cats",
          "type": "uint256[]"
        }
      ],
      "stateMutability": "view",
      "type": "function",
      "constant": true
    },
    {
      "inputs": [
        {
          "internalType": "uint256",
          "name": "tokenId",
          "type": "uint256"
        }
      ],
      "name": "getKitty",
      "outputs": [
        {
          "internalType": "uint256",
          "name": "birthTime",
          "type": "uint256"
        },
        {
          "internalType": "uint256",
          "name": "mumId",
          "type": "uint256"
        },
        {
          "internalType": "uint256",
          "name": "dadId",
          "type": "uint256"
        },
        {
          "internalType": "uint256",
          "name": "generation",
          "type": "uint256"
        },
        {
          "internalType": "uint256",
          "name": "genes",
          "type": "uint256"
        }
      ],
      "stateMutability": "view",
      "type": "function",
      "constant": true
    },
    {
      "inputs": [
        {
          "internalType": "uint256",
          "name": "_id",
          "type": "uint256"
        }
      ],
      "name": "getKittyFilip",
      "outputs": [
        {
          "internalType": "uint256",
          "name": "birthTime",
          "type": "uint256"
        },
        {
          "internalType": "uint256",
          "name": "mumId",
          "type": "uint256"
        },
        {
          "internalType": "uint256",
          "name": "dadId",
          "type": "uint256"
        },
        {
          "internalType": "uint256",
          "name": "generation",
          "type": "uint256"
        },
        {
          "internalType": "uint256",
          "name": "genes",
          "type": "uint256"
        }
      ],
      "stateMutability": "view",
      "type": "function",
      "constant": true
    },
    {
      "inputs": [
        {
          "internalType": "uint256",
          "name": "_genes",
          "type": "uint256"
        }
      ],
      "name": "createKittyGen0",
      "outputs": [
        {
          "internalType": "uint256",
          "name": "",
          "type": "uint256"
        }
      ],
      "stateMutability": "nonpayable",
      "type": "function"
    }
  ],
  "bytecode": "0x60806040523480156200001157600080fd5b506040518060400160405280600c81526020017f6d7943727970746f4361747300000000000000000000000000000000000000008152506040518060400160405280600481526020017f4d43435400000000000000000000000000000000000000000000000000000000815250816000908051906020019062000096929190620001a6565b508060019080519060200190620000af929190620001a6565b505050620000d2620000c6620000d860201b60201c565b620000e060201b60201c565b620002bb565b600033905090565b6000600660009054906101000a900473ffffffffffffffffffffffffffffffffffffffff16905081600660006101000a81548173ffffffffffffffffffffffffffffffffffffffff021916908373ffffffffffffffffffffffffffffffffffffffff1602179055508173ffffffffffffffffffffffffffffffffffffffff168173ffffffffffffffffffffffffffffffffffffffff167f8be0079c531659141344cd1fd0a4f28419497f9722a3daafe3b4186f6b6457e060405160405180910390a35050565b828054620001b49062000256565b90600052602060002090601f016020900481019282620001d8576000855562000224565b82601f10620001f357805160ff191683800117855562000224565b8280016001018555821562000224579182015b828111156200022357825182559160200191906001019062000206565b5b50905062000233919062000237565b5090565b5b808211156200025257600081600090555060010162000238565b5090565b600060028204905060018216806200026f57607f821691505b602082108114156200028657620002856200028c565b5b50919050565b7f4e487b7100000000000000000000000000000000000000000000000000000000600052602260045260246000fd5b61235580620002cb6000396000f3fe608060405234801561001057600080fd5b50600436106101375760003560e01c806370a08231116100b8578063b88d4fde1161007c578063b88d4fde14610352578063c87b56dd1461036e578063d5a776ca1461039e578063e985e9c5146103ce578063e98b7f4d146103fe578063f2fde38b1461043257610137565b806370a08231146102c0578063715018a6146102f05780638da5cb5b146102fa57806395d89b4114610318578063a22cb4651461033657610137565b806318160ddd116100ff57806318160ddd1461020a57806323b872dd1461022857806342842e0e146102445780635a64aafa146102605780636352211e1461029057610137565b806301ffc9a71461013c57806306fdde031461016c578063081812fc1461018a578063095ea7b3146101ba5780630dd1c2e8146101d6575b600080fd5b610156600480360381019061015191906118ea565b61044e565b6040516101639190611c52565b60405180910390f35b610174610530565b6040516101819190611c6d565b60405180910390f35b6101a4600480360381019061019f9190611944565b6105c2565b6040516101b19190611b76565b60405180910390f35b6101d460048036038101906101cf91906118aa565b6105ff565b005b6101f060048036038101906101eb9190611944565b6106a8565b604051610201959493929190611d2a565b60405180910390f35b61021261075e565b60405161021f9190611d0f565b60405180910390f35b610242600480360381019061023d9190611794565b61076b565b005b61025e60048036038101906102599190611794565b61077b565b005b61027a60048036038101906102759190611727565b61079b565b6040516102879190611c30565b60405180910390f35b6102aa60048036038101906102a59190611944565b610832565b6040516102b79190611b76565b60405180910390f35b6102da60048036038101906102d59190611727565b610874565b6040516102e79190611d0f565b60405180910390f35b6102f86108bd565b005b610302610945565b60405161030f9190611b76565b60405180910390f35b61032061096f565b60405161032d9190611c6d565b60405180910390f35b610350600480360381019061034b919061186a565b610a01565b005b61036c600480360381019061036791906117e7565b610b0c565b005b61038860048036038101906103839190611944565b610b1e565b6040516103959190611c6d565b60405180910390f35b6103b860048036038101906103b39190611944565b610b7d565b6040516103c59190611d0f565b60405180910390f35b6103e860048036038101906103e39190611754565b610b95565b6040516103f59190611c52565b60405180910390f35b61041860048036038101906104139190611944565b610c29565b604051610429959493929190611d2a565b60405180910390f35b61044c60048036038101906104479190611727565b610cdf565b005b60007f80ac58cd000000000000000000000000000000000000000000000000000000007bffffffffffffffffffffffffffffffffffffffffffffffffffffffff1916827bffffffffffffffffffffffffffffffffffffffffffffffffffffffff1916148061051957507f5b5e139f000000000000000000000000000000000000000000000000000000007bffffffffffffffffffffffffffffffffffffffffffffffffffffffff1916827bffffffffffffffffffffffffffffffffffffffffffffffffffffffff1916145b80610529575061052882610dd7565b5b9050919050565b60606000805461053f90611fc0565b80601f016020809104026020016040519081016040528092919081815260200182805461056b90611fc0565b80156105b85780601f1061058d576101008083540402835291602001916105b8565b820191906000526020600020905b81548152906001019060200180831161059b57829003601f168201915b5050505050905090565b60006004600083815260200190815260200160002060009054906101000a900473ffffffffffffffffffffffffffffffffffffffff169050919050565b600061060a82610832565b90508073ffffffffffffffffffffffffffffffffffffffff1661062b610e41565b73ffffffffffffffffffffffffffffffffffffffff16148061065a575061065981610654610e41565b610b95565b5b610699576040517f08c379a000000000000000000000000000000000000000000000000000000000815260040161069090611ccf565b60405180910390fd5b6106a38383610e49565b505050565b600080600080600080600887815481106106c5576106c461212a565b5b906000526020600020906002020190508060000160009054906101000a900467ffffffffffffffff1667ffffffffffffffff1695508060000160089054906101000a900463ffffffff1663ffffffff16945080600001600c9054906101000a900463ffffffff1663ffffffff1693508060000160109054906101000a900461ffff1661ffff169250806001015491505091939590929450565b6000600880549050905090565b610776838383610f02565b505050565b61079683838360405180602001604052806000815250610b0c565b505050565b6060600760008373ffffffffffffffffffffffffffffffffffffffff1673ffffffffffffffffffffffffffffffffffffffff16815260200190815260200160002080548060200260200160405190810160405280929190818152602001828054801561082657602002820191906000526020600020905b815481526020019060010190808311610812575b50505050509050919050565b6000806002600084815260200190815260200160002060009054906101000a900473ffffffffffffffffffffffffffffffffffffffff16905080915050919050565b6000600360008373ffffffffffffffffffffffffffffffffffffffff1673ffffffffffffffffffffffffffffffffffffffff168152602001908152602001600020549050919050565b6108c5610e41565b73ffffffffffffffffffffffffffffffffffffffff166108e3610945565b73ffffffffffffffffffffffffffffffffffffffff1614610939576040517f08c379a000000000000000000000000000000000000000000000000000000000815260040161093090611cef565b60405180910390fd5b6109436000611078565b565b6000600660009054906101000a900473ffffffffffffffffffffffffffffffffffffffff16905090565b60606001805461097e90611fc0565b80601f01602080910402602001604051908101604052809291908181526020018280546109aa90611fc0565b80156109f75780601f106109cc576101008083540402835291602001916109f7565b820191906000526020600020905b8154815290600101906020018083116109da57829003601f168201915b5050505050905090565b8060056000610a0e610e41565b73ffffffffffffffffffffffffffffffffffffffff1673ffffffffffffffffffffffffffffffffffffffff16815260200190815260200160002060008473ffffffffffffffffffffffffffffffffffffffff1673ffffffffffffffffffffffffffffffffffffffff16815260200190815260200160002060006101000a81548160ff0219169083151502179055508173ffffffffffffffffffffffffffffffffffffffff16610abb610e41565b73ffffffffffffffffffffffffffffffffffffffff167f17307eab39ab6107e8899845ad3d59bd9653f200f220920489ca2b5937696c3183604051610b009190611c52565b60405180910390a35050565b610b188484848461113e565b50505050565b60606000610b2a61119a565b90506000815111610b4a5760405180602001604052806000815250610b75565b80610b54846111b1565b604051602001610b65929190611b52565b6040516020818303038152906040525b915050919050565b6000610b8e60008060008533611312565b9050919050565b6000600560008473ffffffffffffffffffffffffffffffffffffffff1673ffffffffffffffffffffffffffffffffffffffff16815260200190815260200160002060008373ffffffffffffffffffffffffffffffffffffffff1673ffffffffffffffffffffffffffffffffffffffff16815260200190815260200160002060009054906101000a900460ff16905092915050565b60008060008060008060088781548110610c4657610c4561212a565b5b906000526020600020906002020190508060000160009054906101000a900467ffffffffffffffff1667ffffffffffffffff168160000160089054906101000a900463ffffffff1663ffffffff1682600001600c9054906101000a900463ffffffff1663ffffffff168360000160109054906101000a900461ffff1661ffff168460010154955095509550955095505091939590929450565b610ce7610e41565b73ffffffffffffffffffffffffffffffffffffffff16610d05610945565b73ffffffffffffffffffffffffffffffffffffffff1614610d5b576040517f08c379a0000000000000000000000000000000000000000000000000000000008152600401610d5290611cef565b60405180910390fd5b600073ffffffffffffffffffffffffffffffffffffffff168173ffffffffffffffffffffffffffffffffffffffff161415610dcb576040517f08c379a0000000000000000000000000000000000000000000000000000000008152600401610dc290611caf565b60405180910390fd5b610dd481611078565b50565b60007f01ffc9a7000000000000000000000000000000000000000000000000000000007bffffffffffffffffffffffffffffffffffffffffffffffffffffffff1916827bffffffffffffffffffffffffffffffffffffffffffffffffffffffff1916149050919050565b600033905090565b816004600083815260200190815260200160002060006101000a81548173ffffffffffffffffffffffffffffffffffffffff021916908373ffffffffffffffffffffffffffffffffffffffff160217905550808273ffffffffffffffffffffffffffffffffffffffff16610ebc83610832565b73ffffffffffffffffffffffffffffffffffffffff167f8c5be1e5ebec7d5bd14f71427d1e84f3dd0314c0f7b2291e5b200ac8c7c3b92560405160405180910390a45050565b610f0d83838361149f565b610f18600082610e49565b6001600360008573ffffffffffffffffffffffffffffffffffffffff1673ffffffffffffffffffffffffffffffffffffffff1681526020019081526020016000206000828254610f689190611ed6565b925050819055506001600360008473ffffffffffffffffffffffffffffffffffffffff1673ffffffffffffffffffffffffffffffffffffffff1681526020019081526020016000206000828254610fbf9190611e4f565b92505081905550816002600083815260200190815260200160002060006101000a81548173ffffffffffffffffffffffffffffffffffffffff021916908373ffffffffffffffffffffffffffffffffffffffff160217905550808273ffffffffffffffffffffffffffffffffffffffff168473ffffffffffffffffffffffffffffffffffffffff167fddf252ad1be2c89b69c2b068fc378daa952ba7f163c4a11628f55a4df523b3ef60405160405180910390a4505050565b6000600660009054906101000a900473ffffffffffffffffffffffffffffffffffffffff16905081600660006101000a81548173ffffffffffffffffffffffffffffffffffffffff021916908373ffffffffffffffffffffffffffffffffffffffff1602179055508173ffffffffffffffffffffffffffffffffffffffff168173ffffffffffffffffffffffffffffffffffffffff167f8be0079c531659141344cd1fd0a4f28419497f9722a3daafe3b4186f6b6457e060405160405180910390a35050565b611149848484610f02565b611155848484846114a4565b611194576040517f08c379a000000000000000000000000000000000000000000000000000000000815260040161118b90611c8f565b60405180910390fd5b50505050565b606060405180602001604052806000815250905090565b606060008214156111f9576040518060400160405280600181526020017f3000000000000000000000000000000000000000000000000000000000000000815250905061130d565b600082905060005b6000821461122b57808061121490612023565b915050600a826112249190611ea5565b9150611201565b60008167ffffffffffffffff81111561124757611246612159565b5b6040519080825280601f01601f1916602001820160405280156112795781602001600182028036833780820191505090505b5090505b60008514611306576001826112929190611ed6565b9150600a856112a1919061206c565b60306112ad9190611e4f565b60f81b8183815181106112c3576112c261212a565b5b60200101907effffffffffffffffffffffffffffffffffffffffffffffffffffffffffffff1916908160001a905350600a856112ff9190611ea5565b945061127d565b8093505050505b919050565b6000806040518060a001604052804267ffffffffffffffff1681526020018863ffffffff1681526020018763ffffffff1681526020018661ffff168152602001858152509050600881908060018154018082558091505060019003906000526020600020906002020160009091909190915060008201518160000160006101000a81548167ffffffffffffffff021916908367ffffffffffffffff16021790555060208201518160000160086101000a81548163ffffffff021916908363ffffffff160217905550604082015181600001600c6101000a81548163ffffffff021916908363ffffffff16021790555060608201518160000160106101000a81548161ffff021916908361ffff160217905550608082015181600101555050600060016008805490506114449190611ed6565b90507f0a5311bd2a6608f08a180df2ee7c5946819a649b204b554bb8e39825b2c50ad584828a8a8960405161147d959493929190611bdd565b60405180910390a161149160008583610f02565b809250505095945050505050565b505050565b60006114c58473ffffffffffffffffffffffffffffffffffffffff1661163b565b1561162e578373ffffffffffffffffffffffffffffffffffffffff1663150b7a026114ee610e41565b8786866040518563ffffffff1660e01b81526004016115109493929190611b91565b602060405180830381600087803b15801561152a57600080fd5b505af192505050801561155b57506040513d601f19601f820116820180604052508101906115589190611917565b60015b6115de573d806000811461158b576040519150601f19603f3d011682016040523d82523d6000602084013e611590565b606091505b506000815114156115d6576040517f08c379a00000000000000000000000000000000000000000000000000000000081526004016115cd90611c8f565b60405180910390fd5b805181602001fd5b63150b7a0260e01b7bffffffffffffffffffffffffffffffffffffffffffffffffffffffff1916817bffffffffffffffffffffffffffffffffffffffffffffffffffffffff191614915050611633565b600190505b949350505050565b600080823b905060008111915050919050565b600061166161165c84611da2565b611d7d565b90508281526020810184848401111561167d5761167c61218d565b5b611688848285611f7e565b509392505050565b60008135905061169f816122c3565b92915050565b6000813590506116b4816122da565b92915050565b6000813590506116c9816122f1565b92915050565b6000815190506116de816122f1565b92915050565b600082601f8301126116f9576116f8612188565b5b813561170984826020860161164e565b91505092915050565b60008135905061172181612308565b92915050565b60006020828403121561173d5761173c612197565b5b600061174b84828501611690565b91505092915050565b6000806040838503121561176b5761176a612197565b5b600061177985828601611690565b925050602061178a85828601611690565b9150509250929050565b6000806000606084860312156117ad576117ac612197565b5b60006117bb86828701611690565b93505060206117cc86828701611690565b92505060406117dd86828701611712565b9150509250925092565b6000806000806080858703121561180157611800612197565b5b600061180f87828801611690565b945050602061182087828801611690565b935050604061183187828801611712565b925050606085013567ffffffffffffffff81111561185257611851612192565b5b61185e878288016116e4565b91505092959194509250565b6000806040838503121561188157611880612197565b5b600061188f85828601611690565b92505060206118a0858286016116a5565b9150509250929050565b600080604083850312156118c1576118c0612197565b5b60006118cf85828601611690565b92505060206118e085828601611712565b9150509250929050565b600060208284031215611900576118ff612197565b5b600061190e848285016116ba565b91505092915050565b60006020828403121561192d5761192c612197565b5b600061193b848285016116cf565b91505092915050565b60006020828403121561195a57611959612197565b5b600061196884828501611712565b91505092915050565b600061197d8383611b34565b60208301905092915050565b61199281611f0a565b82525050565b60006119a382611de3565b6119ad8185611e11565b93506119b883611dd3565b8060005b838110156119e95781516119d08882611971565b97506119db83611e04565b9250506001810190506119bc565b5085935050505092915050565b6119ff81611f1c565b82525050565b6000611a1082611dee565b611a1a8185611e22565b9350611a2a818560208601611f8d565b611a338161219c565b840191505092915050565b6000611a4982611df9565b611a538185611e33565b9350611a63818560208601611f8d565b611a6c8161219c565b840191505092915050565b6000611a8282611df9565b611a8c8185611e44565b9350611a9c818560208601611f8d565b80840191505092915050565b6000611ab5603283611e33565b9150611ac0826121ad565b604082019050919050565b6000611ad8602683611e33565b9150611ae3826121fc565b604082019050919050565b6000611afb603883611e33565b9150611b068261224b565b604082019050919050565b6000611b1e602083611e33565b9150611b298261229a565b602082019050919050565b611b3d81611f74565b82525050565b611b4c81611f74565b82525050565b6000611b5e8285611a77565b9150611b6a8284611a77565b91508190509392505050565b6000602082019050611b8b6000830184611989565b92915050565b6000608082019050611ba66000830187611989565b611bb36020830186611989565b611bc06040830185611b43565b8181036060830152611bd28184611a05565b905095945050505050565b600060a082019050611bf26000830188611989565b611bff6020830187611b43565b611c0c6040830186611b43565b611c196060830185611b43565b611c266080830184611b43565b9695505050505050565b60006020820190508181036000830152611c4a8184611998565b905092915050565b6000602082019050611c6760008301846119f6565b92915050565b60006020820190508181036000830152611c878184611a3e565b905092915050565b60006020820190508181036000830152611ca881611aa8565b9050919050565b60006020820190508181036000830152611cc881611acb565b9050919050565b60006020820190508181036000830152611ce881611aee565b9050919050565b60006020820190508181036000830152611d0881611b11565b9050919050565b6000602082019050611d246000830184611b43565b92915050565b600060a082019050611d3f6000830188611b43565b611d4c6020830187611b43565b611d596040830186611b43565b611d666060830185611b43565b611d736080830184611b43565b9695505050505050565b6000611d87611d98565b9050611d938282611ff2565b919050565b6000604051905090565b600067ffffffffffffffff821115611dbd57611dbc612159565b5b611dc68261219c565b9050602081019050919050565b6000819050602082019050919050565b600081519050919050565b600081519050919050565b600081519050919050565b6000602082019050919050565b600082825260208201905092915050565b600082825260208201905092915050565b600082825260208201905092915050565b600081905092915050565b6000611e5a82611f74565b9150611e6583611f74565b9250827fffffffffffffffffffffffffffffffffffffffffffffffffffffffffffffffff03821115611e9a57611e9961209d565b5b828201905092915050565b6000611eb082611f74565b9150611ebb83611f74565b925082611ecb57611eca6120cc565b5b828204905092915050565b6000611ee182611f74565b9150611eec83611f74565b925082821015611eff57611efe61209d565b5b828203905092915050565b6000611f1582611f54565b9050919050565b60008115159050919050565b60007fffffffff0000000000000000000000000000000000000000000000000000000082169050919050565b600073ffffffffffffffffffffffffffffffffffffffff82169050919050565b6000819050919050565b82818337600083830152505050565b60005b83811015611fab578082015181840152602081019050611f90565b83811115611fba576000848401525b50505050565b60006002820490506001821680611fd857607f821691505b60208210811415611fec57611feb6120fb565b5b50919050565b611ffb8261219c565b810181811067ffffffffffffffff8211171561201a57612019612159565b5b80604052505050565b600061202e82611f74565b91507fffffffffffffffffffffffffffffffffffffffffffffffffffffffffffffffff8214156120615761206061209d565b5b600182019050919050565b600061207782611f74565b915061208283611f74565b925082612092576120916120cc565b5b828206905092915050565b7f4e487b7100000000000000000000000000000000000000000000000000000000600052601160045260246000fd5b7f4e487b7100000000000000000000000000000000000000000000000000000000600052601260045260246000fd5b7f4e487b7100000000000000000000000000000000000000000000000000000000600052602260045260246000fd5b7f4e487b7100000000000000000000000000000000000000000000000000000000600052603260045260246000fd5b7f4e487b7100000000000000000000000000000000000000000000000000000000600052604160045260246000fd5b600080fd5b600080fd5b600080fd5b600080fd5b6000601f19601f8301169050919050565b7f4552433732313a207472616e7366657220746f206e6f6e20455243373231526560008201527f63656976657220696d706c656d656e7465720000000000000000000000000000602082015250565b7f4f776e61626c653a206e6577206f776e657220697320746865207a65726f206160008201527f6464726573730000000000000000000000000000000000000000000000000000602082015250565b7f4552433732313a20617070726f76652063616c6c6572206973206e6f74206f7760008201527f6e6572206e6f7220617070726f76656420666f7220616c6c0000000000000000602082015250565b7f4f776e61626c653a2063616c6c6572206973206e6f7420746865206f776e6572600082015250565b6122cc81611f0a565b81146122d757600080fd5b50565b6122e381611f1c565b81146122ee57600080fd5b50565b6122fa81611f28565b811461230557600080fd5b50565b61231181611f74565b811461231c57600080fd5b5056fea2646970667358221220f47033adbb72555ded098591ed7c34a1f183211a36df01822454e7f9539e21a464736f6c63430008060033",
  "immutableReferences": {},
  "source": "// SPDX-License-Identifier: MIT\r\npragma solidity ^0.8.4;\r\n\r\nimport \"@openzeppelin/contracts/token/ERC721/ERC721.sol\";\r\nimport \"@openzeppelin/contracts/access/Ownable.sol\";\r\n\r\ncontract myCryptoCats is ERC721, Ownable {\r\n\r\n  constructor () ERC721( \"myCryptoCats\", \"MCCT\" ) {\r\n  }\r\n\r\n  //bytes4 internal constant MAGIC_ERC721_RECEIVED = (bytes4(keccak256(\"onERC721Received(address,address,uint256,bytes)\")));\r\n\r\n   // call onERC721Received in the _to contract\r\n  //bytes4 private constant _INTERFACE_ID_ERC721 = 0x80ac58cd;\r\n\r\n  // bytes4(keccat256(\"supportInterface(bytes4)\");\r\n  //bytes4 private constant _INTERFACE_ID_ERC165 = 0x01ffc9a7;\r\n\r\n  event Birth(address owner, uint256 kittenId, uint256 mumId, uint256 dadId, uint256 genes);\r\n\r\n  //uint256 public constant CERATION_LIMIT_GEN0 = 10; // max num of cats to be generated\r\n\r\n  //uint256 public gen0Counter;\r\n\r\n  //an address to a number of cats in an array\r\n  mapping(address => uint256[]) ownerToCats;\r\n\r\n  struct Kitty{\r\n  uint64 birthTime;\r\n  uint32 mumId;\r\n  uint32 dadId;\r\n  uint16 generation;\r\n  uint256 genes;\r\n}\r\n\r\nKitty[] kitties;\r\n\r\n  function totalSupply() public view returns (uint256 total) {\r\n    return kitties.length;\r\n  }\r\n\r\n  function getAllCatsFor(address owner) public view returns (uint[] memory cats) {\r\n    return  ownerToCats[owner];\r\n  }\r\n\r\n  function getKitty(uint256 tokenId) public view returns (uint256 birthTime, uint256 mumId, uint256 dadId, uint256 generation, uint256 genes ) {\r\n    Kitty storage returnKitty = kitties[tokenId];\r\n    return (uint256(returnKitty.birthTime), uint256(returnKitty.mumId), uint256(returnKitty.dadId), uint256(returnKitty.generation), uint256(returnKitty.genes) );\r\n  }\r\n\r\n  function getKittyFilip(uint256 _id) public view returns (\r\n    uint256 birthTime,\r\n    uint256 mumId,\r\n    uint256 dadId,\r\n    uint256 generation,\r\n    uint256 genes \r\n    ) {\r\n\r\n    Kitty storage kitty = kitties[_id];\r\n\r\n    birthTime = uint256(kitty.birthTime);\r\n    mumId = uint256(kitty.mumId);\r\n    dadId = uint256(kitty.dadId);\r\n    generation = uint256(kitty.generation);\r\n    genes = uint256(kitty.genes);\r\n    }\r\n\r\n    function createKittyGen0(uint256 _genes) public returns(uint256) { // needs onlyOwner\r\n      //require(gen0Counter <= CERATION_LIMIT_GEN0, \"Gen 0 should be less than creation limit gen 0\" );\r\n\r\n      //gen0Counter++;\r\n\r\n      // mum, dad and generation is 0\r\n    // Gen0 have no owners; they are owned by the contract\r\n    return _createKitty(0,0,0, _genes, msg.sender); // msg.sender could also be -- address(this) - we are giving cats to owner\r\n    }\r\n\r\n  // create cats by generation and by breeding\r\n  // returns cat id\r\n  function _createKitty(\r\n    uint256 _mumId,\r\n    uint256 _dadId,\r\n    uint256 _generation, //1,2,3..etc\r\n    uint256 _genes, // recipient\r\n    address owner\r\n  ) private returns(uint256) {\r\n    Kitty memory newKitties = Kitty({\r\n      genes: _genes,\r\n      birthTime: uint64(block.timestamp),\r\n      mumId: uint32(_mumId),\r\n      dadId: uint32(_dadId),\r\n      generation: uint16(_generation)\r\n    });\r\n\r\n    kitties.push(newKitties); // returns the size of array - 1 for the first cat\r\n\r\n    uint256 newKittenId = kitties.length -1; // 0-1\r\n\r\n    emit Birth(owner, newKittenId, _mumId, _dadId, _genes); // birth of a cat from 0 (standard)\r\n\r\n    _transfer(address(0), owner, newKittenId);\r\n\r\n    return newKittenId; //returns 256 bit integer\r\n\r\n  }\r\n  \r\n\r\n}",
  "sourcePath": "C:/Users/benX/Documents/ethereum_course_advanced/digitalCats/contracts/cryptoCats.sol",
  "compiler": {
    "name": "solc",
    "version": "0.8.6+commit.11564f7e.Emscripten.clang"
  },
  "schemaVersion": "3.4.1",
  "updatedAt": "2021-07-09T20:00:50.173Z",
  "networkType": "ethereum",
  "devdoc": {
    "kind": "dev",
    "methods": {
      "approve(address,uint256)": {
        "details": "See {IERC721-approve}."
      },
      "balanceOf(address)": {
        "details": "See {IERC721-balanceOf}."
      },
      "getApproved(uint256)": {
        "details": "See {IERC721-getApproved}."
      },
      "isApprovedForAll(address,address)": {
        "details": "See {IERC721-isApprovedForAll}."
      },
      "name()": {
        "details": "See {IERC721Metadata-name}."
      },
      "owner()": {
        "details": "Returns the address of the current owner."
      },
      "ownerOf(uint256)": {
        "details": "See {IERC721-ownerOf}."
      },
      "renounceOwnership()": {
        "details": "Leaves the contract without owner. It will not be possible to call `onlyOwner` functions anymore. Can only be called by the current owner. NOTE: Renouncing ownership will leave the contract without an owner, thereby removing any functionality that is only available to the owner."
      },
      "safeTransferFrom(address,address,uint256)": {
        "details": "See {IERC721-safeTransferFrom}."
      },
      "safeTransferFrom(address,address,uint256,bytes)": {
        "details": "See {IERC721-safeTransferFrom}."
      },
      "setApprovalForAll(address,bool)": {
        "details": "See {IERC721-setApprovalForAll}."
      },
      "supportsInterface(bytes4)": {
        "details": "See {IERC165-supportsInterface}."
      },
      "symbol()": {
        "details": "See {IERC721Metadata-symbol}."
      },
      "tokenURI(uint256)": {
        "details": "See {IERC721Metadata-tokenURI}."
      },
      "transferFrom(address,address,uint256)": {
        "details": "See {IERC721-transferFrom}."
      },
      "transferOwnership(address)": {
        "details": "Transfers ownership of the contract to a new account (`newOwner`). Can only be called by the current owner."
      }
    },
    "version": 1
  },
  "userdoc": {
    "kind": "user",
    "methods": {},
    "version": 1
  }
}